:10000000F8FF002011040000174000001740000016
:100010001740000017400000174000001740000084
:100020001740000017400000174000001740000074
:100030001740000017400000174000001740000064
:100040001740000017400000174000001740000054
:10040000FFFFFFFFFFFFFFFFFFFFFFFFFEFFFFFFFD
:1004100062B606F065FAFEE72DE9F04FA1B082461C
:10042000002017461D4602910B900DF1440B6FF012
:1004300000490AE017F8011B0298D04702900028F3
:1004400000F0A2820B98401C0B90387808B90B98EA
:100450009CE22528EED10020059006900790089098
:1004600009900A9001E040F0010017F8011F2029CF
:10047000F9D023290DD02B2904D02D2906D03029DD
:100480000AD00CE040F0020080B2EEE740F0040039
:10049000FAE740F00800F7E740F01000F4E72A29F7
:1004A0000ED12968296051F8042B2960002A0D9289
:1004B00004D5514240F004000D9180B27F1C11E040
:1004C00000210D9109E00D99494505D001EB81030B
:1004D00002EB430130390D917F1C3A78A2F13001D3
:1004E0000A29F0D339782E2903D04FF0FF310C912F
:1004F0001DE017F8011F2A2907D1296829607F1CF0
:1005000051F8042B29600C9211E000210C9109E0B4
:100510000C99494505D001EB810302EB43013039C9
:100520000C917F1C3A78A2F130010A29F0D3ADF882
:1005300038000FF6B820397800F076FD08B117F8CA
:10054000010B8DF83A009DF83A00682802BF39780F
:100550006829622005D06C2804BF38786C2803D144
:1005600071208DF83A007F1C11A8049017F8014BF8
:10057000B4F1250024D02038022840F2C580133879
:1005800000F0EB800B3800F04F81401E00F024811A
:10059000401E022840F2B880001F00F01D81401F5D
:1005A00000F08380401E00F0D880401E29D0C01E7D
:1005B0000CD0801E00F0D180C01E00F0CE803DE146
:1005C0000120059025208DF8440043E1286828602B
:1005D00050F8044B28600394DDF83080B8F1000F28
:1005E00004D5204600F02CFD804607E0424600215D
:1005F000204600F041FD08B1A0EB0408CDF81880BA
:1006000028E1296829604FF03C0851F8040B296063
:100610000021CDE9000111A80390DDE90001049C4F
:1006200011B908B90C9AC2B10206120FA0EB02125E
:100630003032D2B23A2AA8BF27320009A8F101030A
:1006400040EA017009091A5508BF0028984604D0ED
:10065000039A08EB04039A42E6D308EB04000390E4
:10066000C8F13C010C980691814209DA401A0890C1
:100670004FF6EF71BDF838000840ADF83800E9E0FA
:10068000002840F1E7809DF8380000F014001028A1
:1006900040F0E0800D98059A801A089A801A401A56
:1006A0000128C0F2D7800890D4E09DF83A00622873
:1006B0001AD0682806D06A280CD06C281CD0712863
:1006C00008D019E02868286050F8041B28600B98AF
:1006D0000880BFE02868286050F8042B28600B9839
:1006E000C117C2E90001B5E02868286050F8041B72
:1006F00028600B980870ADE02868286050F8041B4B
:1007000028600B980860A5E02868C01D20F007024B
:100710002A60D2E9000108322A60CDE900010029EF
:1007200003D5012005902D200CE0BDF8380081078D
:1007300003D5012005902B2004E0C00704D501203B
:10074000059020208DF84400059911A80818039001
:10075000214600A800F0D8F97CE09DF83A206C2AE8
:100760000DD0712A18BF6A2A09D12868C01D20F04F
:1007700007032B60D3E9000108332B6005E02968EB
:10078000296051F8040B29600021CDE90001682A95
:1007900008BF80B207D0622A08BFC0B203D0742A53
:1007A00018BF7A2A02D10021CDE900019DF8380056
:1007B000000730D5DDE90001002908BF00282AD054
:1007C00044F02000782826D130208DF844008BF8A2
:1007D0000140022005901EE09DF83A00294600F0F5
:1007E000D8F8CDE90001002904DA0598411C0591EB
:1007F0002D210EE0BDF83800810704D50598411C75
:1008000005912B2105E0C00705D50598411C0591F0
:10081000202100F80B10059911A808180390214613
:1008200000A800F0EDF815E0012005902868286088
:1008300050F8041B28608DF844100BE0012005904F
:100840002520002C8DF8440004D00598411C05910A
:1008500000F80B400D980599401A0899401A06991E
:10086000401A0999401A0799401A0A99A0EB010801
:100870009DF8380040070FD420208DF84000002458
:1008800008E0012310AA00A9504600F098FB0028B8
:100890007AD1641C4445F4DB059C11AE0AE016F8DD
:1008A000011B0298D047029000286DD00B98401C85
:1008B0000B90641E002CF2D130208DF840000026F1
:1008C000089C08E0012310AA00A9504600F077FB1D
:1008D000002859D1761CA642F4DB069C039E0AE050
:1008E00016F8011B0298D047029000284CD00B98B4
:1008F000401C0B90641E002CF2D130208DF840007B
:100900000026099C07E0012310AA00A9504600F028
:1009100056FBC8BB761CA642F5DB03980699079CDC
:100920000E1809E016F8011B0298D047029058B340
:100930000B98401C0B90641E002CF3D130208DF8D6
:10094000400000260A9C07E0012310AA00A9504697
:1009500000F035FBC0B9761CA642F5DB9DF83800E7
:1009600040077FF572AD20208DF84000002400E0A4
:10097000641C4445BFF669AD012310AA00A9504686
:1009800000F01DFB0028F3D04FF0FF3021B0BDE890
:10099000F08F622826D068281DD06A2808D06C28DD
:1009A00027D0712804D0742823D07A280CD020E0D6
:1009B0000868C01D20F007000860D0E90023083057
:1009C00008601946104670470A680A6052F8040B1E
:1009D0000A60002170470A680A6052F8040B0A6036
:1009E00000B20BE00A680A6052F8040B0A6040B2D9
:1009F00004E00A680A6052F8040B0A60C1177047E5
:100A00002DE9FA4E05460A462F696F2A08BF0824C9
:100A100005D041F02000782814BF0A2410243C2679
:100A2000D5E90001642A18BF692A81468A4605D1A2
:100A3000002903DAD9F100096AEB4A0ABAF1000F7A
:100A400008BFB9F1000F0CD1286B50B9082C36D172
:100A500095F83800000732D530203B2687F83B0058
:100A60002DE0E31748465146224600F031FBA4FB37
:100A70000023A9EB02023032D2B2A6F1010B3A2ACE
:100A80005E4603DB9DF80030513B9A1881465FEAD1
:100A9000010A0BF8072008BFB9F1000F03D0E8687E
:100AA000F1198842DDD3082C09D195F838000007E8
:100AB00005D5F05D302802D0761E3020F055C6F105
:100AC0003C00A861F119E960296B884208DA081A2C
:100AD00028624FF6EF71288F08402887BDE8F38E13
:100AE00000290ED595F8381001F01401102908D10D
:100AF000696B6A69891A2A6A891A081A0128A8BFC3
:100B00002862BDE8F38E00002DE9F34F8BB0D0E9E9
:100B10000089006B002801AF48BF062005D404BF40
:100B200041F02000672802D101200B99086340F2B0
:100B3000FF720B984168C1F30A50904220D108031C
:100B400002BF0B98006800280AD10B990320886126
:100B50009DF8300061381A2858D30FF2A44109E0FB
:100B60000B99032088619DF8300061381A284AD318
:100B70000FF284410B98C068032200F021FB00E1D2
:100B8000012807DA0B9800F056FB012802DB00234E
:100B90000026EDE00B9ADFF854B1526840F2FE31C6
:100BA00061F31E520B994A6040F2FE31461A4046EC
:100BB00049460022002300F05FFB38BF89F000495E
:100BC00036B247F297507043494990FBF1F636B27E
:100BD000C6F10707012F92461BDBF80707D55246DF
:100BE0005B464046494600F05FFB804689467F10E1
:100BF0005046594652465B4600F056FB002F82464F
:100C00008B46EAD126E00FF2EC31B3E70FF2EC317C
:100C1000B0E77F420024374D12E0F80707D552466F
:100C20005B462046294600F03FFB04460D467F10F8
:100C30005046594652465B4600F036FB82468B468C
:100C4000002FEAD14046494622462B4600F0FEFBE3
:100C5000804689469DF830000B99DFF89CB0096BFF
:100C600040F02005662D0CBF06F10A00062047184B
:100C7000142FA8BF132730208DF804000DF10504B0
:100C8000012F3BDB4046494600F01AFD014604F1C6
:100C9000080204234FF00A0CB1FBFCFC0CEB8C04A3
:100CA000A1EB4401303102F8011D0A21BCFBF1FE29
:100CB0000EEB8E04ACEB440430345B1E714602F83C
:100CC000014DE7D1083F012F02F10804D8DB00F005
:100CD00017FD02460B464046494600F01FFD002224
:100CE0005B4600F0E1FA80468946CBE700002440ED
:100CF000A08601000000F03F84D797410DF1050068
:100D0000201A0DF1050702E0401E761E7F1C39787F
:100D10003029F9D0662D02D136B2711C03E0652D61
:100D20000CBF012100210B9A126B8B181BB2984249
:100D3000B8BF03461BB219001AD4814204DAC85D59
:100D40003528A8BF392000DA3020CA19521E00E029
:100D50005B1E12F80159491E8542F9D0392802D18B
:100D6000C85D401CC855002902D57F1E5B1C761C3F
:100D700036B29DF830100B9800961BB23A4600F040
:100D800003F80DB0BDE8F08F2DE9F04786B00646B8
:100D90008A4690461D4600F09EFD406A376B90F8EB
:100DA0000090012D02DA01250FF258284AF02000A8
:100DB000BDF93840662808BF641C13D0672840F08E
:100DC000888014F1040F73DBBC4271DA96F83800A6
:100DD000641C000702D4BD42B8BF2F4624B23F1B9B
:100DE00048BF002724B2F068B169012C21DA4A1CFF
:100DF00030230B54012F03DA96F83810090702D577
:100E000002F80090521CE742B8BF7C4224B2614213
:100E1000E719AF42B261B8BF3D4671622DB2F561CC
:100E20002A46B3694146181800F0CAF9781BB06227
:100E3000AEE00818A54216DA2A46414600F0C0F98D
:100E4000B1696918601BB161012F706203DA96F80D
:100E50003800000705D5F06801F80090F069401CE3
:100E6000F061B76294E02246414600F0A9F9B0690A
:100E700020182D1B012F03DA96F83810090703D527
:100E8000F16800F80190401CB0612DB2AF42B8BFCC
:100E90003D46F068B3692DB22A4604EB08011818E4
:100EA00000F08EF9B0692818B061781B70626FE0AD
:100EB000BD4204DA96F83810090758BF2F467F1E46
:100EC00048BF0027BAF1670F0CBF4FF0650A4FF01B
:100ED000450AB169F06818F8013B0B544A1C012F10
:100EE00005DA96F83810090758BFB26115D502F82F
:100EF0000090531C012FB3610FDB6D1E2DB2AF426A
:100F0000B8BF3D462DB22A464146181800F058F9A0
:100F1000B0692818B061781B7062F068B16901EBA4
:100F20000008200008F801AB03D42B2008F8010BBF
:100F300003E02D2108F8011B6442002502AF08E000
:100F40000A2200A800F0E0FC019807F8010B6D1CD4
:100F5000009C21B20129F3DA022D06DA4AF02000C2
:100F6000652804BF302008F8010B4DB9302008F87F
:100F7000010B07E06D1E02A8285C303008F8010B59
:100F8000012DF7DAF068B1690818A8EB0000F061EC
:100F900096F8380000F0140010280DD17069B1697E
:100FA0000818716A0818F1690818B16A0818716B95
:100FB0008842BCBF081A306206B0BDE8F087F8B5B9
:100FC00004460D4616461F46002004E0E86A401C11
:100FD000E8627F1E002047B116F8011BA868A047F1
:100FE000A8600028F2D14FF0FF30F2BD686A6C743F
:100FF0007A4C00006E616E004E414E00696E6600D4
:10100000494E4600300050F8041B61B150F8042BE3
:10101000D30744BFA9F101039A180023091F42F81E
:10102000043BFAD1EFE770470278C9B28A421AB19D
:101030001CBF10F8012FF9E718BF0020704700000F
:1010400000F10103810704D010F8011B89B1810769
:10105000FAD10268B2F10131914311F0803F04BF2F
:1010600050F8042FF6E710F8011B11B110F8011B1E
:10107000FBE7C01A70470000C9B2830706D0521EB2
:1010800022D310F8013B9942F7D11FE0083A13D35D
:1010900002F1040241EA012141EA014150F8043B16
:1010A000121F21BF4B40A3F1013C2CEA030C1CF0A2
:1010B000803FF3D0C9B2001F083210F8013B521E26
:1010C00028BF91EA030FF8D818BF0120401E7047CF
:1010D0001B4213D1094236D12AB18446B0FBF2F04B
:1010E00002FB10C2704700F017BCFCD300220023A3
:1010F00070470B000200002100207047904271EB06
:10110000030CF6D370B5B1FA81F4B3FA83F52C1B56
:10111000A340C4F1200532FA05F63343A2405FF044
:101120000046E64002E05B085FEA3202841A71EB97
:10113000030524BF204629467641F4D302000B0064
:101140003000002170BD012ACFD970B5140C20D019
:10115000B1FA81F4B2FA82F5C4F120046419B4F151
:101160002006D6D3B2405FF00044F440002502E0F0
:1011700052085FEA3303C61A71EB020E24BF3046F1
:10118000714664416D41F3D302000B002000290039
:1011900070BD0C46B1FBF2F102FB11452D0445EA8E
:1011A0001045B5FBF2F402FB145580B240EA054548
:1011B000B5FBF2F002FB105240EA044070BD0000A3
:1011C00062B38B0708D0521E11F8013B00F8013BB7
:1011D00000F024808B07F6D1830740F0208000BF09
:1011E000103A07D330B4B1E83810103AA0E83810FC
:1011F000F9D230BC530724BFB1E80810A0E80810AA
:1012000044BF51F8043B40F8043BD20724BF31F8F7
:10121000022B20F8022B44BF0B7803707047083A6A
:1012200007D3B1E80810083A40F8043B40F804CB73
:10123000F7D25307E4E730B4436803F000420121DA
:101240001B031B0B436004BF0368002B08D10DE098
:101250000368DD0F45EA440444605B000360491EF7
:101260004468E302F4D523031B0B436043681A432D
:101270004260084630BC70474FF4001C1CEB410F25
:1012800094BF1CEB430F09E041EA030C50EA4C0CFD
:1012900052EA0C0C03D2994208BF9042704714BF27
:1012A0008B42824270470000B0B581EA030C0CF01B
:1012B000004C40F2FF7515EA11541DBF15EA135793
:1012C000AC42AF4239E0E41923EA455343F48013BA
:1012D000C90241F0004141EA505EC7021100A7FB7C
:1012E000020200284FF00000EEFB01204FF0000149
:1012F000E3FB072118BF42F00102401800214941D9
:10130000E3FB0E01A4F580640F0302D252004041BA
:10131000494154F101046CDD470872F1004250F17B
:10132000000051EB0451A1F580115CBF41EA0C01B2
:10133000B0BD4CEA05510020B0BD05EA1357AC42E0
:1013400014BFAF4241E050EA410E1CBF52EA430EC7
:1013500002E061460020B0BD24423C441BD15FEA5C
:10136000070EF6D0090302BF01460020AEF1140EAD
:10137000B1FA81F7AEEB070401FA07FE0C37C7F1AB
:10138000200100FA07F7C8404EEA000E23EA455351
:1013900043F48013A2E733F00043B3FA83F704BFAA
:1013A000B2FA82FE77440B3FE41BB7F1200E2FBF49
:1013B00002FA0EF3BB40C7F1200E22FA0EFE38BF30
:1013C00043EA0E03BA40641C82E750EA410E14BFA0
:1013D00052EA430E6FF000014FF4001717EB430F72
:1013E0008ABF194617EB410FB5E74CEA05510020BB
:1013F000B0BDD4F10104B4F120070FDAC4F1200725
:10140000520828BF42F0010210FA07F501FA07F767
:10141000E1BF2A43E0403843E1400FE0352C98DC3F
:10142000C7F1200452EA400220FA07F218BF42F046
:10143000010231FA07F0A1400A43002172F1004293
:1014400050F1000051EB0C01B0BD0000F0B540F2CE
:10145000FF7581EA030C0CF0004C15EA11541DBF16
:1014600015EA1357AC42AF42E5E0BC41C1F31301AA
:10147000C3F31303801A994143F4801304D2641E0A
:101480004000494180185941C90241EA5051B1FB1D
:10149000F3F603FB1611A2FB0675D7EBC020A9419A
:1014A00002D2761E80185941C90241EA5051B1FB5F
:1014B000F3FE03FB1E11A2FB0E75D7EBC020A94162
:1014C00003D2AEF1010E80185941890241EA9051D0
:1014D000760546EA8E2EB1FBF3F603FB1611A2FB4E
:1014E0000675D7EB8020A94102D2761E801859419B
:1014F000C90241EA50514EEA060EB1FBF3F603FB76
:101500001611A2FB0675D7EBC020A94102D2761EA8
:1015100080185941C90241EA5051B1FBF3F703FB6E
:101520001711A2FB0735D3EBC020A94167F10007D3
:101530000CBF004247F0010766F3D5274FEA1E3182
:10154000B80814F5806412DDBD0775F1004250EB58
:101550000E5051EB045111F5801F5CBF41EA0C01A4
:10156000F0BD4CF07F6141F0E0410020F0BDBD07CF
:101570006D0840EA0E5041F48011D4F10104B4F139
:1015800020060ADAC4F120060200E04001FA06F360
:10159000E1401843B24015430EE0342C13DCC6F191
:1015A000200445EA40056D0820FA06F2154321FAA9
:1015B00006F0A1400D43002175F1004250F10000FA
:1015C00051EB0C01F0BD00205FEA0C01F0BDCFB97A
:1015D00092185B41B3FA83F704BFB2FA82F6BF19DF
:1015E0000B3FB7F120062FBF02FA06F3BB40C7F14D
:1015F000200622FA06F638BF3343BA401CB1E4197C
:10160000641E33E77F4231F00041B1FA81F404BF38
:10161000B0FA80F6A4190B3CB4F120062FBF00FAF3
:1016200006F1A140C4F1200620FA06F638BF314386
:10163000A0403C1B1AE7AC421ABF05EA1357AF4261
:1016400012E050EA41061CBF52EA4306BFE750EAE7
:101650004107304661461CBF41EA0551F0BD52EAE0
:10166000430C08BFC143F0BD00204FF4001616EB39
:10167000410F98BF16EB430F08BF16EB410F24BF75
:10168000C14305E016EB430F0CBF61464CEA055120
:10169000F0BD0000F446400D40EAC120490006D2EA
:1016A00000F014F8004248BF6FF00040604700F0BF
:1016B0000DF84FF0004188428CBF08464042604719
:1016C000400D40EAC120490080F00D8040F000400C
:1016D000490DA1F58061491C05D4D1F11F0154BF0A
:1016E000C840C01770474FF000007047010040F13C
:1016F0000980F446404200F005F851F0004160478F
:10170000010000BF09D0B0FA80F18840C91CC1F5C2
:101710008461090501EBD0214005704770B44FF09A
:10172000004591EA030F44BF6B4000F001B900BFD0
:10173000841A71EB030604D26E40001BB1411219EA
:1017400073414FF4001C1CEB410F34BF7CEB43068C
:1017500084E00C0DA4EB1356362E7DDC012E43DC09
:1017600045EAC32343EA525312BFD20292025B08F6
:10177000240545EAC12141EA5051D2EBC0209941EC
:1017800025D407D1B0FA80F610FA06F164D0002013
:10179000203608E0B1FA81F6B140C6F1200220FA05
:1017A00002F21143B0404FEAF474B4EB465434F003
:1017B00001064FEA74040AD8D6F50016760D04F037
:1017C0000044F04061FA06F25040F1404840C00A3F
:1017D00040EA415021F0004128BF5FEA500550F136
:1017E000000044EBD12137E045EAC323DB0A45EA98
:1017F000C121C90AB6F120050EDD42EA0242120CEF
:10180000C5F1200603FA06F6EB4042EA06056D42F2
:10181000984161F100010DE062FA06F5F240554091
:1018200063FA06FC82EA0C02F3405A406D42904192
:1018300061EB030111F4801F05D1641E620502D023
:101840006D004041494121F48011430875F1004386
:1018500050F1000041EB045170BC70471CEB410F8C
:1018600015D223F0004352EA43060BD04FEA4C0C4A
:10187000BCEB410F04D80C0D661E342EB7DDEBE730
:10188000801A994150EA410608BF0021E4E708BFE9
:101890001CEB430F28BF6FF00001DDE780B5134854
:1018A00000F0B0F80FF24801016041608160C16052
:1018B0000161416181610FF23C0242628162C16259
:1018C000016341630FF2300282630FF23402C2639C
:1018D0000164416401BD10B5044800F093F804466A
:1018E000206808B9FFF7DAFF204610BD4C10FF1F33
:1018F000000000002E00000066616C7365000000AF
:10190000747275650000000091FBF2F303FB121185
:10191000C0E90031704700007047000070B44FF01C
:10192000004591EA030C44BF6B40FFF701BF00BFC5
:10193000841A71EB030603D2001BB14112197341E3
:101940004FF4001C1CEB410F34BF7CEB430443E01D
:101950000C0DA4EB1356352E50DC45EAC323DB0AED
:1019600045EAC121C912B6F120050DDD63FA05F67D
:10197000EB4086EA0305124218BF45F00105C01886
:1019800051F100010CD213E062FA06F5F240554025
:10199000F3415A40B340F3405A408018594107D3AD
:1019A00049085FEA30005FEA350528BF45F00105C8
:1019B00001F58011420875F1004250F1000041EB41
:1019C000045170BC4FF4001C1CEB410F38BF704732
:1019D0000020090D090570471CEB410F10D252EA97
:1019E00043060BD0BCEB410F05D80C0DAB43661E74
:1019F000342EB5DD02E0AB438018594170BC70470E
:101A000070BC70477047000080B50A20DFF83819B5
:101A100088717320DFF83019C8717320DFF8281936
:101A200081F8A2002020DFF8201908715F20DFF87C
:101A3000181948710A20DFF8141988717320DFF82B
:101A40000C19C8717320DFF8041981F8A200202056
:101A5000DFF8F81808715A20DFF8F01848710022F2
:101A600001218A2000F0CAFC002201218C2000F014
:101A7000C5FC122000F056FD00220121862000F056
:101A8000BDFC00220121882000F0B8FC112000F0EC
:101A900049FD002200214E2000F0B0FC0022002170
:101AA0004C2000F0ABFC002200214A2000F0A6FCF4
:101AB00000220021482000F0A1FC0022002121206A
:101AC00000F09CFC00220021232000F097FC002263
:101AD0000021252000F092FC00220021272000F0A8
:101AE0008DFC00220021292000F088FCDFF860082E
:101AF0000168002000F072FE00F03BFF40F2FF534F
:101B000064220221032001F0ABFB002342F2107299
:101B10000421002001F0A4FB002342F210720521F1
:101B2000002001F09DFB002342F2107206210020EC
:101B300001F096FB002342F210720721002001F011
:101B40008FFB012001F0EEFC022001F0EBFC4C20A9
:101B500000F0C7FC002817D19B20DFF8F817088099
:101B60009B20DFF8F4170880A520DFF8F017088025
:101B7000A520DFF8EC170880F020DFF8E8170880D0
:101B8000F020DFF8E41708804A2000F0AAFC0028C3
:101B900017D1A520DFF8BC170880A520DFF8B817FB
:101BA0000880AF20DFF8B4170880AF20DFF8B01747
:101BB0000880FA20DFF8AC170880FA20DFF8A817B1
:101BC0000880482000F08DFC002817D1AA20DFF8FB
:101BD00084170880AA20DFF880170880B420DFF877
:101BE0007C170880B420DFF878170880FF20DFF822
:101BF00074170880FF20DFF87017088001BD80B5DA
:101C0000DFF868270021002000F051FF56A20021D4
:101C1000252000F04CFF0122DFF8540790ED000A68
:101C20000021362001F0BCF8B1A20121252000F0EE
:101C30003EFF0122DFF83C0790ED000A012136202B
:101C400001F0AEF8DFF830270221002000F02FFF6E
:101C500045A20221252000F02AFF0122DFF81C07FF
:101C600090ED000A0221362001F09AF8A1A203218A
:101C7000252000F01CFF0122DFF8040790ED000A88
:101C80000321362001F08CF899A20421252000F0D0
:101C90000EFF0122DFF8EC0690ED000A0421362049
:101CA00001F07EF8DFF8E0260521002000F0FFFEBD
:101CB0000122DFF89406B0F90A0000EE100AB8EE2F
:101CC000C00A0521192001F06BF8DFF8C0260521B4
:101CD0003C2000F0ECFE0122DFF87006B0F90A00AB
:101CE00000EE100AB8EEC00A05215A2001F058F89B
:101CF000DFF89C260621002000F0D9FE0122DFF843
:101D00004806008900EE100AB8EE400A06211C20A1
:101D100001F046F8DFF87C260621322000F0C7FEED
:101D20000122DFF82806008900EE100AB8EE400A0A
:101D300006214E2001F034F80122DFF85C0690ED18
:101D4000000AB8EEC00A0721002001F029F801229C
:101D5000DFF8480690ED000AB8EEC00A07213C20E3
:101D600001F01EF801BD0000503D000080B5DFF815
:101D700030260021002000F09AFE0122DFF8240620
:101D8000B0F9000000EE100AB8EEC00A00211E20D3
:101D900001F006F80122DFF81006B0F9000000EEAD
:101DA000100AB8EEC00A0021462000F0F9FFDFF863
:101DB000FC250121002000F07AFE0122DFF8F00569
:101DC000B0F9000000EE100AB8EEC00A01211E2092
:101DD00000F0E6FF0122DFF8DC05B0F9000000EEBC
:101DE000100AB8EEC00A0121462000F0D9FFDFF842
:101DF000C8250221002000F05AFE0122DFF8BC05B0
:101E0000B0F9000000EE100AB8EEC00A02211E2050
:101E100000F0C6FF0122DFF8A805B0F9000000EECF
:101E2000100AB8EEC00A0221502000F0B9FF32A219
:101E30000321002000F03BFE0122DFF88805007836
:101E400000EE100AB8EE400A0321142000F0A8FFAB
:101E5000DFF874250321322000F029FE0122DFF88B
:101E60006C05007800EE100AB8EE400A03215020FD
:101E700000F096FFDFF858250621002000F017FE3D
:101E80000122DFF8C804007800EE100AB8EE400A1C
:101E90000621232000F084FF0122DFF8B0044078FF
:101EA00000EE100AB8EE400A06214B2000F078FF41
:101EB000DFF820250721002000F0F9FD0122DFF8DE
:101EC0008804007800EE100AB8EE400A07212320AB
:101ED00000F066FF0122DFF87004407800EE100A7F
:101EE000B8EE400A07214B2000F05AFF01BD000068
:101EF000443D0000493D000075703A0080B5272040
:101F000000F0EFFA002815D1002000F006FDDFF800
:101F1000C8040078401CDFF8C0140870DFF8B8046B
:101F20000078042803DB0020DFF8AC140870C82018
:101F300001F0CDFBDFF8A0040078002805D00228CE
:101F40000AD005D303280AD00CE0FFF758FE09E0B9
:101F5000012000F014FE05E0FFF708FF02E0022078
:101F600000F00DFE212000F0BCFA002840F0D880DF
:101F7000DFF86804007800280AD0022846D026D36B
:101F8000042800F0818060D3052800F09C80B8E030
:101F9000C4A20021642000F08AFDC3A201216420B4
:101FA00000F085FDC0A20221642000F080FDBEA2E9
:101FB0000321642000F07BFDBBA20421642000F01B
:101FC00076FDB9A20721762000F071FD99E0B6A256
:101FD0000021642000F06BFDB2A20121642000F01A
:101FE00066FDB1A20221642000F061FDAEA20321D2
:101FF000642000F05CFDACA20421642000F057FDD9
:10200000A9A20721762000F052FD7AE0A6A20021C5
:10201000642000F04CFDA4A20121642000F047FDE3
:10202000A0A20221642000F042FD9FA203216420AF
:1020300000F03DFD9CA20421642000F038FD9AA22E
:102040000721762000F033FD5BE097A20021642099
:1020500000F02DFD94A20121642000F028FD92A241
:102060000221642000F023FD8EA20321642000F0F1
:102070001EFD8DA20421642000F019FD8AA2072113
:10208000762000F014FD3CE087A20021642000F0DF
:102090000EFD85A20121642000F009FD82A202212B
:1020A000642000F004FD80A20321642000F0FFFC06
:1020B0007CA20421642000F0FAFC7BA20721762098
:1020C00000F0F5FC1DE078A20021642000F0EFFC98
:1020D00075A20121642000F0EAFC73A202216420B1
:1020E00000F0E5FC70A20321642000F0E0FC6EA289
:1020F0000421642000F0DBFC6AA20721762000F0B6
:10210000D6FCB6480078401CB4490870B348007843
:10211000062802DB0020B1490870C82001F0D7FA78
:10212000232000F0DEF9002879D1AC48007800289F
:1021300008D002283FD031D3042854D048D30528F2
:102140005ED069E0A6480078012827D10020A44984
:10215000087055A20721762000F0A9FC78A207217B
:10216000732000F0A4FC40F2DC5001F0B0FA8D487E
:10217000B0F9000032280BDA8B48B0F900003228A1
:1021800006DA41F2883141F2883001F0B7FAEEE721
:102190006CA20721732000F08AFC3DE074480068BF
:1021A00001F0F2FD8F4A904BFFF7B8FB01F014FEEF
:1021B0006F49086030E06F48006801F0E5FD894A2A
:1021C000894BFFF7ABFB01F007FE6A49086023E08B
:1021D0006A4890ED000AF7EE000A30EE200A6748E0
:1021E00080ED000A18E06648006801F0CDFD7D4AE8
:1021F0007D4BFFF793FB01F0EFFD614908600BE0B9
:102200006048006801F0C0FD764A774BFFF786FB17
:1022100001F0E2FD5B490860C82001F058FA252072
:1022200000F05FF9002850D16C480078002806D0F3
:1022300002281ED010D3042838D027D342E05148BA
:10224000006801F0A1FD674A684BFFF767FB01F0EA
:10225000C3FD4C49086035E04548006801F094FD35
:10226000604A624BFFF75AFB01F0B6FD4049086037
:1022700028E04048006801F087FD5A4A5B4BFFF7B1
:102280004DFB01F0A9FD3B4908601BE03B4890ED88
:10229000000AFFEE000A30EE200A384880ED000AFE
:1022A00010E000BF3C00000020000000344800683F
:1022B00001F06AFD4B4A4D4BFFF730FB01F08CFDFE
:1022C0002F490860C82001F002FA292000F009F91E
:1022D000002834D146480078012806D020D30328AE
:1022E00011D009D3042815D01AE000204149087004
:1022F00000204149087013E001203E490870002089
:102300003D4908700CE001203A49087001203A4923
:10231000087005E000203749087001203649087030
:1023200033480078401C324908703148007805284D
:1023300002DB01202E490870C82001F0C8F901BD58
:10234000474F000020200000200EFF1FC80EFF1F77
:10235000CC0FFF1F2810FF1F2A10FF1F2C10FF1F7C
:102360002E10FF1F3010FF1F3210FF1F647000007F
:102370001004FF1F840FFF1F6C700000D80BFF1F9D
:10238000DC0BFF1F9C0FFF1F747000007C700000AF
:10239000847000008C700000A00FFF1FA40FFF1FAF
:1023A000947000003410FF1F3610FF1F9C70000057
:1023B0002410FF1F2610FF1FA47000002010FF1F15
:1023C0002210FF1F3E10FF1FAC7000003F10FF1FC8
:1023D000B4700000BC7000004110FF1F4010FF1FD0
:1023E0001404FF1F9A9999999999B93F9999B9BF7E
:1023F0001504FF1F4310FF1F4410FF1F70B504009A
:102400000D0016004FF480712000C0B201F02CFDC9
:102410006DB2002D11D14148E4B2611150F8210094
:102420003E49E4B2621151F822104969012214F0C8
:102430001F039A409143416136E03848E4B261118C
:1024400050F821003549E4B2621151F8221049696F
:10245000012214F01F039A4011434161F6B2002E8D
:1024600011D12E48E4B2611150F821000068012119
:1024700014F01F02914088432849E4B2621151F8D8
:102480002210086010E02548E4B2611150F82100E4
:102490000068012114F01F02914008431F49E4B273
:1024A000621151F82210086070BD10B504001B487D
:1024B000E4B2611150F82100406914F01F01C840D6
:1024C000C00703D47B21164801F03BFD1348E4B25A
:1024D000611150F82100012114F01F029140C160E8
:1024E00010BD10B504000D48E4B2611150F8210090
:1024F000406914F01F01C840C00703D58C2108486B
:1025000001F01FFD0548E4B2611150F82100006997
:1025100014F01F01C84010F0010010BD380BFF1F60
:10252000FC6C000038B5040064B26511EDB2002DFA
:1025300002D0012D11D021E0A348006850F00060C6
:10254000A1490860A148006830F090009F490860E8
:102550009E4800689D49086014E09D48006850F05E
:1025600000609B4908609948006830F41040974922
:102570000860964800689549086003E03321954853
:1025800001F0DFFC64B22000002800F089800128FF
:1025900000F08680032800F0838008284ED00928A8
:1025A00051D00A2854D00B2857D00C285AD00D28C7
:1025B0005DD00E2860D00F2863D0102870D011286D
:1025C00064D0122867D013286AD0142868D01A283B
:1025D00066D01D2864D01E2862D0202861D0212812
:1025E0005FD023285DD024285CD025285FD0262802
:1025F00062D0272865D0282868D029286BD02A28BF
:102600006ED02B2871D02C2874D02D2877D02E286E
:102610007AD02F287DD0302800F0858031287DD0D9
:10262000322800F0808033287DD034287BD03A28AF
:1026300079D03D2877D03E2875D075E00021202044
:1026400001F012FC74E00021212001F00DFC6FE08C
:102650000021072001F008FC6AE00021082001F0B9
:1026600003FC65E00021222001F0FEFB60E0002178
:10267000232001F0F9FB5BE00021402001F0F4FB96
:1026800056E00021412001F0EFFB51E000219820AD
:1026900001F0EAFB4CE00021992001F0E5FB47E066
:1026A00046E045E00021802001F0DEFB40E0002113
:1026B000812001F0D9FB3BE00021822001F0D4FB16
:1026C00036E00021832001F0CFFB31E00021202003
:1026D00001F0CAFB2CE00021212001F0C5FB27E01E
:1026E0000021242001F0C0FB22E00021252001F080
:1026F000BBFB1DE00021262001F0B6FB18E0002105
:10270000272001F0B1FB13E000212A2001F0ACFBEF
:102710000EE000212B2001F0A7FB09E00021112091
:1027200001F0A2FB04E003E09A212A4801F009FC31
:1027300031BDF8B504000D0064B266110027290010
:1027400049B2200040B200F01CF8234876B250F89D
:10275000260000680006F8D51F4876B250F826001B
:10276000006907001C4876B250F82600006830F077
:102770008000194976B251F826100860380080B2FE
:10278000F2BD30B440B2421110F01F0349B28C00C8
:1027900014F00C0454F050040F4D52B255F822506E
:1027A000AC6004240C4D52B255F82250EC60DBB200
:1027B00013F01F0454F04004074D52B255F8225054
:1027C0002C6030BC704700003C80044018800440FE
:1027D00030800440706B00001804FF1F38B50400FF
:1027E0000D00002D03D12221174801F0AAFB174844
:1027F000006850F400001549086000201449086082
:10280000681E144964B222015050124864B210EBA1
:102810000410C06850F001000E4964B211EB0411BD
:10282000C8600C4864B210EB041080684008400097
:10283000084964B211EB041188600320054964B2B1
:1028400011EB0411886031BD806D00003C800440B4
:10285000007003400071034008210122DFF8FC33BF
:102860001A6000BF0022DFF8F8331A6000BF0A00C8
:10287000511ED2B2002A15D0020604D50122DFF87B
:10288000E4331A6003E00022DFF8D8331A60012233
:10289000DFF8CC331A6000BF0022DFF8C4331A60BF
:1028A0004000E4E77047000008210022DFF8AC3365
:1028B0001A600022DFF8A8331A600A00511ED2B253
:1028C000002A15D0020604D50122DFF898331A60D9
:1028D00003E00022DFF88C331A600122DFF8803336
:1028E0001A6000BF0022DFF878331A604000E4E786
:1028F000704738B504000D00B5F15000C0B2FFF7C5
:10290000D3FFE4B2200950F01000C0B2FFF7CCFFB3
:1029100014F00F00FFF7C8FF31BD70B504000020B0
:102920000500EDB2082D17DAB5F15000C0B2FFF77F
:10293000BBFF0120FFF7B8FF1020FFF7B5FF002015
:102940000600F6B2802E05DA2000C0B2FFF784FF41
:10295000761CF6E76D1CE4E770BD002808D043F252
:10296000264211000A00511E002AFBD1401EF4E746
:10297000704780B5002201215320FFF73FFD002260
:1029800001215220FFF73AFD012201215120FFF7DA
:1029900035FD002201215020FFF730FD0020DFF837
:1029A000C81208603220FFF7D8FF0120DFF8B81204
:1029B0000860AE20FFF778FF0020FFF775FF1020BA
:1029C000FFF772FF4020FFF76FFF8120FFF76CFFDA
:1029D000CF20FFF769FFA120FFF766FFC820FFF7B0
:1029E00063FFA620FFF760FFA820FFF75DFF3F20F1
:1029F000FFF75AFFD320FFF757FF0020FFF754FFE0
:102A0000D520FFF751FF8020FFF74EFFD920FFF7B9
:102A10004BFFF120FFF748FFDA20FFF745FF1220B8
:102A2000FFF742FFDB20FFF73FFF4020FFF73CFFAF
:102A30002020FFF739FF0220FFF736FF8D20FFF738
:102A400033FF1420FFF730FFA420FFF72DFFA6204F
:102A5000FFF72AFFAF20FFF727FF0020FFF75DFFFA
:102A600000210020FFF745FF01BD70B504000D00F7
:102A70000120EDB2082195FBF1F202FB11529040CA
:102A80000600EDB2E8085038C0B2FFF70DFFE4B21F
:102A9000200950F01000C0B2FFF706FF14F00F003D
:102AA000FFF702FF3000C0B2FFF7D6FE70BD2DE980
:102AB000F84304000D00160000275FF000085FF0E7
:102AC00000095FFA89F919F8060000282BD05FFA8F
:102AD00089F919F8060020380700E4B27F2C02DBE0
:102AE000002004006D1C2900C9B22000C0B2FFF70D
:102AF00000FF002080465FFA88F8B8F1060F0EDA72
:102B0000DFF8A405FFB2062101FB07005FFA88F891
:102B100018F80000FFF7A0FE18F10108EBE7A41D6C
:102B200019F10109CDE7BDE8F1832DE9F041040079
:102B30008846150000260027B5F120000600E4B203
:102B40007B2C03DB0020040018F101084146C9B2C8
:102B50002000C0B2FFF7CDFE00200700FFB2062F15
:102B60000BDADFF84405F6B2062101FB0600FFB2DE
:102B7000385CFFF771FE7F1CF0E7BDE8F08130B5EF
:102B8000A1B004000020FFF7C8FEE4B2012C2FD151
:102B900000200500EDB2802D15DADFF81005EDB24A
:102BA0002818407B022190FBF1F000A9EDB2685497
:102BB00000A8EDB2285C3F2803DB3F2000A9EDB25E
:102BC00068546D1CE6E700200500EDB2802D0FDA99
:102BD00000A8EDB2295C2800C0B2FFF746FF012231
:102BE000B7EE000A00213C2000F0DAF86D1CECE79B
:102BF000E4B2022C2FD100200500EDB2802D15DAB1
:102C0000DFF8AC04EDB22818407B022190FBF1F014
:102C100000A9EDB2685400A8EDB2285C3F2803DBA0
:102C20003F2000A9EDB268546D1CE6E700200500C6
:102C3000EDB2802D0FDA00A8EDB2295C2800C0B2F9
:102C4000FFF713FF0122B0EE000A00213C2000F044
:102C5000A7F86D1CECE721B030BD00004C10FE431E
:102C60004010FE434410FE434810FE432DE9F84F48
:102C700004000D0016001F002E222900C9B22000FA
:102C8000C0B2FFF752FF4FF47A70B6FBF0F0804607
:102C90004FF47A70B6FBF0F100FB11606421B0FBD9
:102CA000F1F081466420B6FBF0F100FB11600A21CF
:102CB000B0FBF1F082460A20B6FBF0F100FB116098
:102CC0008346FFB2012F06D068D3032F21D00CD347
:102CD000042F3CD062E01BF13002D2B22900C9B20D
:102CE000A01DC0B2FFF721FF58E01AF13002D2B2A6
:102CF0002900C9B2A01DC0B2FFF717FF1BF13002B7
:102D0000D2B22900C9B214F10C00C0B2FFF70DFF16
:102D100044E019F13002D2B22900C9B2A01DC0B2FC
:102D2000FFF703FF1AF13002D2B22900C9B214F141
:102D30000C00C0B2FFF7F9FE1BF13002D2B229003D
:102D4000C9B214F11200C0B2FFF7EFFE26E018F18D
:102D50003002D2B22900C9B2A01DC0B2FFF7E5FE11
:102D600019F13002D2B22900C9B214F10C00C0B27C
:102D7000FFF7DBFE1AF13002D2B22900C9B214F11A
:102D80001200C0B2FFF7D1FE1BF13002D2B229000F
:102D9000C9B214F11800C0B2FFF7C7FEBDE8F18F49
:102DA0002DE9F84F2DED028B82B004008B46B0EE7A
:102DB000408A150006275FF00008BDEEC80A10EE35
:102DC000109ABDEEC80AB8EEC00A38EE400ADFED30
:102DD000B40A20EE200ABDEEC00A10EE10AA9FED44
:102DE000B10AB4EE408AF1EE10FA07D52D22594609
:102DF000C9B22000C0B2FFF798FE06E02B22594668
:102E0000C9B22000C0B2FFF790FEB9F1000F01D5A2
:102E1000D9F10009C84642F21070B8FBF0F08DF805
:102E2000030042F21070B8FBF0F100FB11804FF488
:102E30007A71B0FBF1F08DF802004FF47A70B8FBB4
:102E4000F0F100FB11806421B0FBF1F08DF801007E
:102E50006420B8FBF0F100FB11800A21B0FBF1F017
:102E60008DF800000A20B8FBF0F100FB118006008D
:102E70009DF80300002839D09DF8030010F13002BE
:102E8000D2B25946C9B2A01DC0B2FFF74EFE9DF89E
:102E9000020010F13002D2B25946C9B214F10C004E
:102EA000C0B2FFF742FE9DF8010010F13002D2B22D
:102EB0005946C9B214F11200C0B2FFF736FE9DF8B0
:102EC000000010F13002D2B25946C9B214F1180014
:102ED000C0B2FFF72AFE16F13002D2B25946C9B28B
:102EE00014F11E00C0B2FFF720FE82E09DF8020040
:102EF00000282FD0052007009DF8020010F13002B5
:102F0000D2B25946C9B2A01DC0B2FFF70EFE9DF85D
:102F1000010010F13002D2B25946C9B214F10C00CE
:102F2000C0B2FFF702FE9DF8000010F13002D2B2ED
:102F30005946C9B214F11200C0B2FFF7F6FD16F1FE
:102F40003002D2B25946C9B214F11800C0B2FFF72C
:102F5000ECFD4EE09DF80100002823D0042007007E
:102F60009DF8010010F13002D2B25946C9B2A01D3D
:102F7000C0B2FFF7DAFD9DF8000010F13002D2B2C6
:102F80005946C9B214F10C00C0B2FFF7CEFD16F1DC
:102F90003002D2B25946C9B214F11200C0B2FFF7E2
:102FA000C4FD26E09DF80000002817D0032007008C
:102FB0009DF8000010F13002D2B25946C9B2A01DEE
:102FC000C0B2FFF7B2FD16F13002D2B25946C9B213
:102FD00014F10C00C0B2FFF7A8FD0AE002200700C0
:102FE00016F13002D2B25946C9B2A01DC0B2FFF7E5
:102FF0009CFDBAF1000F01D5DAF1000AEDB2002D07
:1030000006D0022D17D004D3042D36D024D342E0AD
:1030100041E02B00DBB24FF47A709AFBF0F2594694
:10302000C9B2FFB2062000FB07F050FA84F0C0B22C
:10303000FFF71CFE2FE02B00DBB264209AFBF0F2BE
:103040005946C9B2FFB2062000FB07F050FA84F0DF
:10305000C0B2FFF70BFE1EE02B00DBB20A209AFB8A
:10306000F0F25946C9B2FFB2062000FB07F050FA51
:1030700084F0C0B2FFF7FAFD0DE02B00DBB2524640
:103080005946C9B2FFB2062000FB07F050FA84F09F
:10309000C0B2FFF7EBFD02B0BDEC028BBDE8F18FD3
:1030A00000401C4695BFD633C8640000200EFF1FA9
:1030B000C80EFF1F38B504000D0064B2002C06D006
:1030C000022C69D04CD3032C00F08280C7E0DFF8DB
:1030D000B005006850F08070DFF8A41508606DB28C
:1030E000002D0BD0022D15D00ED3042D1ED017D3DA
:1030F000062D27D020D3072D2AD02FE04FF4806152
:10310000412000F0B1FE2AE04FF44071042000F0AD
:10311000ABFE24E04FF44071052000F0A5FE1EE058
:103120004FF44071062000F09FFE18E04FF48061DC
:10313000642000F099FE12E04FF48061652000F0F9
:1031400093FE0CE04FF48061662000F08DFE06E0F7
:103150004FF48061672000F087FE00E07FE07EE0B2
:10316000DFF81C05006850F00070DFF814150860E7
:103170006DB2002D02D0012D06D00BE04FF440714E
:10318000082000F071FE06E04FF44071092000F0C5
:103190006BFE00E063E062E0DFF8E804006850F0F6
:1031A0008070DFF8E01408606DB2002D02D0012DB0
:1031B00006D00BE04FF440710A2000F055FE06E007
:1031C0004FF440710B2000F04FFE00E047E046E076
:1031D000DFF8B004006850F00070DFF8A814086051
:1031E0006DB2002D0BD0022D15D00ED3042D1ED0A4
:1031F00017D3062D27D020D3072D2AD02EE04FF449
:10320000C061852000F030FE28E04FF4C0618620C8
:1032100000F02AFE22E04FF4C061872000F024FE77
:103220001CE04FF4C061882000F01EFE16E04FF451
:10323000C061892000F018FE10E04FF4C0618A20C0
:1032400000F012FE0AE04FF4C0618B2000F00CFE8B
:1032500004E04FF4C0618C2000F006FEFFE731BDB2
:103260002DE9F84F04000D0016001F0064B2002C79
:1032700011D064B2012C02D064B2022C02D16DB222
:10328000022D08DB64B2032C05D040F28511DFF873
:10329000F80300F056FE290049B2200040B2FFF7C3
:1032A00009FFDFF8E80300684FF47A71484380466D
:1032B0005FEA1840B0FBF6F08146002082461FFA14
:1032C00089F959FA0AF0012802DB1AF1010AF6E736
:1032D0005FFA8AFABAF1080F05DB4FF4D071DFF814
:1032E000A80300F02EFE38FA0AF0B0FBF6F0814693
:1032F0001FFA89F9DFF8980364B240F8249064B2A9
:10330000002C05D0022C1AD00ED3032C22D02DE095
:103310001FFA89F919F1010000FB07F042F2107160
:10332000B0FBF1F0834621E01FFA89F919F10100A1
:1033300000FB07F06421B0FBF1F0834616E01FFAB2
:1033400089F919F1010000FB07F06421B0FBF1F0ED
:1033500083460BE01FFA89F919F1010000FB07F021
:1033600042F21071B0FBF1F08346FFE7DFF824036F
:1033700064B250F824006DB210EBC500DFF81413EE
:1033800064B251F824106DB211EBC501C96831F077
:103390000401C160DFF8FC0264B250F824006DB291
:1033A00010EBC5002821C1605FFA8AFA1AF0070005
:1033B00050F00800DFF8DC1264B251F82410086005
:1033C0001FFA89F9DFF8CC0264B250F82400C0F883
:1033D00008900020DFF8BC1264B251F82410C864D1
:1033E000DFF8B00264B250F824006DB210EBC500F3
:1033F0001FFA8BFBC0F810B00020DFF8981264B2FF
:1034000051F824104860BDE8F18F2DE9F041040027
:103410000D0016005FF0000864B2002C11D064B2F9
:10342000012C02D064B2022C02D16DB2022D08DB55
:1034300064B2032C05D04FF4F371DFF84C0200F0B6
:1034400080FD64B2002C05D0022C17D00DD3032CC4
:103450001DD027E042F21170864205D34FF4F67179
:10346000DFF8240200F06DFD1CE0652E05D34FF45B
:10347000F871DFF8140200F064FD13E0652E05D347
:103480004FF4FA71DFF8000200F05BFD0AE042F24F
:103490001170864205D340F2F911DFF8EC0100F01B
:1034A00050FDFFE7DFF8E80164B250F824008046E1
:1034B00064B2002C05D0022C16D00CD3032C1CD0E7
:1034C00025E018F1010000FB06F042F21071B0FB9C
:1034D000F1F007001BE018F1010000FB06F0642189
:1034E000B0FBF1F0070012E018F1010000FB06F05C
:1034F0006421B0FBF1F0070009E018F1010000FBC6
:1035000006F042F21071B0FBF1F00700FFE7DFF8C0
:10351000840164B250F824006DB210EBC50007615D
:10352000BDE8F08110B5040064B2012C07D064B28C
:10353000022C04D040F2DB21534800F002FD64B2BB
:103540002000012802D0022811D021E04C48006858
:1035500050F000704A4908604FF4C061082000F044
:1035600083FC4FF4C061092000F07EFC15E0454863
:10357000006850F08070434908604FF4C0610A2031
:1035800000F072FC4FF4C0610B2000F06DFC04E011
:1035900040F213313C4800F0D4FC3E4864B250F88D
:1035A0002400406D50F004003A4964B251F82410F0
:1035B0004865384864B250F82400D0F8800050F0D4
:1035C0000800344964B251F82410C1F8800000208A
:1035D000304964B251F82410C8644FF6FF702D4989
:1035E00064B251F8241088602A4864B250F824006C
:1035F000D0F8800050F00100264964B251F8241040
:10360000C1F88000234864B250F82400406D50F0A7
:103610000100204964B251F82410486500201D497A
:1036200064B251F82410486010BD38B5040064B28B
:10363000012C07D064B2022C04D04FF44C71124814
:1036400000F07FFC134864B250F824004068050085
:10365000280000B232BD10B5040064B2012C07D0BE
:1036600064B2022C04D040F23E31074800F069FCFD
:103670000020084964B251F82410486010BD0000D1
:103680003C80044030800440786C0000CC0FFF1F69
:10369000880FFF1F280BFF1F10B50400002C15D04A
:1036A000B4F1807F03D329210F4800F04AFC0020A9
:1036B0000E4908600E48046000200E49086005208D
:1036C0000A49086009480068C003FBD510BD10B561
:1036D00004002000441E002804D007480068FFF7BB
:1036E000DBFFF6E710BD0000E86A000010E000E034
:1036F00014E000E018E000E0C40FFF1F38B504003C
:103700000D0024B2012C0BDB002204210020FFF766
:103710007CFE24B2220005210020FFF776FE0AE09D
:1037200024B2624204210020FFF76FFE002205212F
:103730000020FFF76AFE2DB2012D0BDB2DB22A000F
:1037400006210020FFF761FE002207210020FFF77D
:103750005CFE0AE0002206210020FFF756FE2DB293
:103760006A4207210020FFF750FE31BD80B5DFF827
:103770008005DFF88015016000F0DDF9DFF87805DD
:1037800090ED000ADFEDDE0A30EE200A10EE100A9E
:1037900000F0FAFA0022DFF86435FDF785FD00221B
:1037A000DFF85C35FDF752FE00F016FBDFF854152C
:1037B0000860DFF85005006800F0E6FADFF84825F9
:1037C000DFF84835FDF770FD0022DFF83435FDF7EE
:1037D0003DFE41EC100B00F009FE51EC100B00F027
:1037E000FBFADFF82C150860DFF82805B0F90A00AD
:1037F0000B2821DBDFF82005B0F90000FDF776FF8C
:103800005FF06632DFF81435FDF74EFDFDF742FF3D
:10381000DFF80C150880DFF80005B0F90000FDF7AF
:1038200065FF5FF03332DFF8FC34FDF73DFDFDF757
:1038300031FFDFF8E4140880DFF8D804B0F90A009B
:1038400010F10A0F21DADFF8D804B0F90000FDF713
:103850004DFF5FF06632DFF8C434FDF725FDFDF75C
:1038600019FFDFF8B4140880DFF8B404B0F90000E1
:10387000FDF73CFF5FF03332DFF8A834FDF714FDAD
:10388000FDF708FFDFF898140880DFF89C04008833
:10389000DFF898140880DFF898044088DFF8901467
:1038A0008880DFF88C040088DFF884144880DFF813
:1038B00068040088DFF874140988401ADFF870146F
:1038C0000880DFF870040088DFF860140880DFF8F3
:1038D00068044088DFF860148880DFF85C040088A2
:1038E000DFF854144880DFF838040088DFF83C140F
:1038F0000988401ADFF840140880DFF84004008887
:10390000DFF82C14B1F90010DFF82424B2F90220FA
:10391000891A00EE101AB8EEC00ADFF82414D1EDAF
:10392000000A20EE200ADFF80814B1F9001000EEBA
:10393000901AF8EEE00ADFF80C1491ED001A00EE90
:10394000810ADFF8EC13B1F90010DFF8E423B2F9D3
:103950000220B1EB4201DFF8D823B2F90420891824
:1039600000EE901AF8EEE00ADFF8DC1391ED001A91
:1039700000EE810ABDEEC00A10EE101A0818DFF83A
:10398000BC130880DFF8C4030088DFF8AC13B1F97A
:103990000010DFF8A423B2F90220891A00EE101AF1
:1039A000B8EEC00ADFF89813D1ED000A20EE200A25
:1039B000DFF88413B1F9001000EE901AF8EEE00A77
:1039C000DFF8801391ED001A00EE810ADFF868132A
:1039D000B1F90010DFF86023B2F90220B1EB420127
:1039E000DFF85423B2F90420891800EE901AF8EE9B
:1039F000E00ADFF8541391ED001A00EE810ABDEEE3
:103A0000C00A10EE101A0818DFF840130880DFF81B
:103A100040030078012809D1DFF83803DFF81C13D0
:103A20000880DFF83003DFF8241308804E20FEF70B
:103A300058FD002809D14FF47A60DFF800130880A0
:103A40004FF47A60DFF804130880DFF80C03006895
:103A5000DFF8E812B1F90010884205DADFF8F80261
:103A60000068DFF8D8120880DFF8D002B0F9000053
:103A7000DFF8E4120968C84206DADFF8DC02006801
:103A80004042DFF8B8120880DFF8CC020068DFF8A7
:103A9000BC12B1F90010884205DADFF8BC020068F8
:103AA000DFF8A8120880DFF8A402B0F90000DFF800
:103AB000A8120968C84206DADFF89C020068404292
:103AC000DFF888120880DFF86002B0F900001428DF
:103AD0000ADADFF86002B0F90000142804DA0021E5
:103AE0000020FFF70BFE09E0DFF86002B0F90010DC
:103AF000DFF84802B0F90000FFF700FE01BD00004A
:103B000000E0BFC480B50120FFF78FFD8649088023
:103B10000220FFF78AFD4042864908800120FFF716
:103B20009AFD0120FFF797FD0220FFF794FD022088
:103B3000FFF791FD01BD8949B1F90A10012902DBA6
:103B40008648408903E08548B0F90A00404240B207
:103B5000292801DB282108008049B1F90A10012930
:103B600003DB7E49B1F90A1003E07C49B1F90A1080
:103B700049420B292BDA7A490978491C784A117095
:103B8000774909781F2902DB1E21754A11706149A6
:103B9000B1F90A10012903DB5E49B1F90A1003E00B
:103BA0005C49B1F90A1049420B290CDA6D490978D0
:103BB000491C6C4A11706B4909781F290ADB1E21C8
:103BC000684A117006E00021664A117002E0002187
:103BD000634A11706349097808290DDB6249097845
:103BE000002909D15E490978082905DB01215E4ACF
:103BF000117000215D4A11705B490978012945D196
:103C00005A490978002941D15449B1F90A100129CA
:103C100003DB5249B1F90A1003E05049B1F90A1027
:103C200049420A290EDB4D49B1F99010012903DB05
:103C30004A49B1F9901003E04849B1F9901049425E
:103C40000A291DDA3349B1F90A10012903DB314988
:103C5000B1F90A1003E02F49B1F90A1049420A29C3
:103C600014DB2C49B1F99010012903DB2949B1F982
:103C7000901003E02749B1F9901049420A2905DB69
:103C800001213A4A11700021374A117036490978EA
:103C900000290BD135490978012907D13449098810
:103CA0001D4A1180334909881D4A11802E4909781F
:103CB00001290BD12D490978002907D12E490988FE
:103CC000154A11802D490988154A1180264909781D
:103CD00000290BD125490978002907D128490988ED
:103CE0000D4A1180274909880D4A1180704700004C
:103CF000C00FFF1F9A99193F800FFF1F000044401B
:103D000000806640B80FFF1F4AD8124DFB210940C2
:103D1000BC0FFF1FC80EFF1F2410FF1F6666E63F83
:103D20002610FF1F3333F33F3410FF1F3810FF1FDF
:103D3000A80FFF1F3610FF1FB00FFF1F2010FF1F1F
:103D4000D80BFF1FDC0BFF1F9C0FFF1F2210FF1F54
:103D50004510FF1F0CFEFFFFE00BFF1F200EFF1F93
:103D60004910FF1F4A10FF1F4810FF1F4710FF1F79
:103D70002C10FF1F2E10FF1F3010FF1F3210FF1FCF
:103D80002810FF1F2A10FF1F5FF0FF0C1CEAD05104
:103D900014BF614506E0C110400721F0E04101F188
:103DA0006051704779B900F0004100020AD0B0FAC2
:103DB00080FC00FA0CF001F16051A1EB0C5101EB19
:103DC000D0214005704741020CBF40F4E0016FF084
:103DD00000010020704700004FEAF17CBCF1E04C8C
:103DE0002CBFBCF5001F11E05FEA4C0C34BFBCF1E6
:103DF0007F5F2EE05FEA9C0C4FEA0C1C4FEA3C0C04
:103E0000C10071F100414CEB50707047C90241EAAA
:103E10005051C00218BF41F0010141F000414FEA8A
:103E20006C50C0F10900212810D240EACC7CCCF1C2
:103E3000200C11FA0CF070F10040CCF1200C21FAAA
:103E40000CF00CF0004C40EB0C0070474FEACC70CB
:103E50007047490011F5001F04D84FEACC10FF301D
:103E6000C0057047C817704710B4294A12684FF44C
:103E70000073C0B24409A3401A43254B1A60254A77
:103E8000C0B2431152F82320012310F01F04A340B5
:103E9000C2F8A0301F4AC0B2431152F82320C0B26A
:103EA00010F01F0342F8231010BC704710B4184ADA
:103EB00012684FF40073C0B24409A3401A43144B74
:103EC0001A60144AC0B2431152F82320012310F0A3
:103ED0001F04A340C2F8A03031F4E0610D4AC0B223
:103EE000431152F82320C0B210F01F0352F82320D0
:103EF00012F4E0621143074AC0B2431152F8232082
:103F0000C0B210F01F0342F8231010BC704700002D
:103F100038800440AC0BFF1FDFF800F0610CFF1F7E
:103F2000DFF800F0850CFF1FBFF34F8F4648006895
:103F300010F4E0604549084343490860BFF34F8FE0
:103F4000FEE738B504000D00002000F057FA2A0003
:103F500021003F4800F08AFA002000F06CFA4FF48C
:103F60007A70FFF7B4FBF2E738B504000D002100CA
:103F700049B2032000F098FB200032BD10B50024A8
:103F8000042000F0ABFB042000F0DEFB002841D150
:103F9000002000F033FA042000F0D6FB012801D104
:103FA00001200400002000F046FA2A4800F05EFAE2
:103FB0004FF4FA70FFF78BFBE4B2012CEBD1042035
:103FC00000F0C2FB0028E6D1042000F0BDFB002871
:103FD00006D1002000F02FFA6420FFF778FBF3E70A
:103FE000042000F0B1FB012806D1002000F023FAE4
:103FF0003220FFF76CFBF3E7174800F037FAFFF7C2
:104000008BFF6420FFF763FB0020FFF789FFFFF7BA
:104010008BFFC0E710BD10B510480468012000F008
:10402000EDF9012000F007FA0D48E4B20F2101FB81
:104030000402E4B221000B4800F018FA4FF47A7041
:10404000FFF745FBEDE700000CED00E00400FA058A
:104050006C6F000044700000C46F000004ED00E0CD
:104060002004FF1F086F0000D0B52DED068B41EC3A
:10407000180B82B053EC182BBA48BB49FDF714F962
:10408000BA4ABB4B41EC190B21F00041FDF7F4F8A3
:1040900080F0D08051EC190B0022002300F06CFB63
:1040A00053EC192B99BF0020B2490020B249FDF70B
:1040B00035FCFDF7EFFA040051D0FDF717FB0022A5
:1040C000AE4BFDF7F1F841EC190B53EC192B4FF007
:1040D000A040AB49FDF7E8F802460B4651EC180B3F
:1040E000FDF71CFB06460F4653EC192B4FF0C04062
:1040F000A449FDF7D9F802460B4630463946FDF78C
:104100000DFB06460F4653EC192B4FF000509E490D
:10411000FDF7CAF802460B4630463946FDF7FEFA6F
:1041200006460F4653EC192B00209849FDF7BCF8C2
:1041300002460B4630463946FDF7F0FA06460F4672
:1041400053EC192B4FF000509149FDF7ADF80246A2
:104150000B4630463946FDF7E1FA41EC180B51ECBD
:10416000180B6FF001028B4B00F006FB04F0030408
:1041700006D800224FF07953FDF77EF8C0F0828018
:1041800053EC182BFDF790F841EC190B53EC192B5D
:1041900081488249FDF788F8814A824BFDF7BEFBD2
:1041A00053EC192BFDF780F87F4A804BFDF7B6FBE7
:1041B00053EC192BFDF778F87D4B0022FDF7AEFB91
:1041C00041EC1A0B53EC182B51EC190BFDF76CF862
:1041D00006460F4653EC192B76487749FDF764F8ED
:1041E000764A774BFDF79AFB53EC192BFDF75CF8F9
:1041F000744A754BFDF792FB32463B46FDF754F887
:1042000053EC182BFDF78AFB41EC180BE00708D59F
:1042100051EC1A0B53EC182BFDF718F981F0004103
:1042200005E051EC180B53EC1A2BFDF70FF941EC9C
:10423000100BD5E08DED008BDDE90001DDE90023F9
:10424000C3F30A5140F2FF72914229D0002904BF02
:10425000190350EA11301FD08DED008B00A800F03B
:10426000A3FA04469DED008B4A4B51EC180B6FF0FE
:10427000010200F081FA23D800224FF07953FCF7B5
:10428000FBFF1DD2E00707D50020504953EC182B47
:10429000FDF7DCF841EC180B02B051EC180BA2E072
:1042A000190350EA1130F7D100F032FB21210160EF
:1042B00002B04FF0FF30BDEC068B6FF00041D0BD77
:1042C00053EC182BFCF7F0FF41EC190B53EC192BB6
:1042D00031483249FCF7E8FF314A324BFDF71EFB0B
:1042E00053EC192BFCF7E0FF2F4A304BFDF716FB80
:1042F00053EC192BFCF7D8FF2D4B0022FDF70EFBDA
:1043000041EC1A0B53EC182B51EC190BFCF7CCFFBA
:1043100006460F4653EC192B26482749FCF7C4FFE5
:10432000264A274BFDF7FAFA53EC192BFCF7BCFF92
:10433000244A254BFDF7F2FA32463B46FCF7B4FF20
:1043400053EC182BFDF7EAFA41EC180BE0073FD5C8
:1043500051EC1A0B53EC182BFDF778F881F0004163
:104360003CE000BF83C8C96D305FE43F0000A0FFA0
:10437000FFFFDF410000E03F0000E0BF0000303EF3
:10438000FB21B941B410114026A6513E5C14D33C28
:104390009A833B3BFFFF3FBE6C9E741E68522BBF4F
:1043A000A908265CB9E7973FD5FFB699218BDDBFF9
:1043B0000000F03FDB9955949A63DFBED625F7865F
:1043C00075FC663F6955C388986BC0BF0000F0BF9D
:1043D00051EC180B53EC1A2BFDF738F841EC100B8D
:1043E00002B051EC100BBDEC068BD0BD80B551EC8A
:1043F000100BFFF739FE41EC100B01BD10B50400A6
:1044000064B2042C07DA01220121174864B2205C4F
:10441000FDF7F4FF0EE0042004002000441E40B22B
:10442000002807D0012201210F4864B2205CFDF76B
:10443000E5FFF2E710BD10B5040064B2042C05DA04
:10444000094864B2205CFEF730F80CE00420040058
:104450002000441E40B2002805D0034864B2205C0E
:10446000FEF723F8F4E710BDEC0BFF1F0EB400B508
:1044700082B003A90091024600AB012103487844B1
:104480000A30FBF7C9FF06BC5DF810FB952B000056
:104490002DE9F84304000D0064B2002C08D0022C72
:1044A0002CD018D3042C4FD03BD3052C5FD071E017
:1044B000DFF81002006850F48060DFF8081208602E
:1044C0004FF440716620FFF7CFFC4FF44071672036
:1044D000FFF7CAFC5EE0DFF8EC01006850F4006012
:1044E000DFF8E01108604FF440714320FFF7BCFC97
:1044F0004FF440714420FFF7B7FC4BE0DFF8C401F4
:10450000006850F48050DFF8BC1108604FF440712F
:104510006320FFF7A9FC4FF440716220FFF7A4FC71
:1045200038E0DFF8A001006850F40050DFF8941183
:1045300008604FF440718520FFF796FC4FF44071FE
:104540008420FFF791FC25E0DFF87C01006850F43F
:104550008060DFF8741108604FF440714E20FFF75F
:1045600083FC4FF440714F20FFF77EFC12E0DFF830
:104570005801006850F40060DFF84C1108604FF4F7
:1045800040718920FFF770FC4FF440718820FFF7DD
:104590006BFCFFE7DFF8340164B250F82400C07808
:1045A00010F0F300DFF8241164B251F82410C87041
:1045B000DFF8180164B250F824008078DFF80C119D
:1045C00064B251F82410887064B2002C02D064B236
:1045D000012C07D1DFF8F80000684FF47A714843E6
:1045E000814606E0DFF8EC0000684FF47A7148433A
:1045F00081462801B9FBF0F00600B6B2B6F5005FBF
:1046000002DB41F6FF700600B9FBF5F0B6B2B0EB85
:1046100006100700BFB2202F03DBDC212E48FFF776
:1046200090FC2A4864B250F82400007810F0E000B2
:104630008046B6B2300A10F01F0050EA0800234945
:1046400064B251F824100870204864B250F8240075
:1046500046701E4864B250F82400807A10F0E000E2
:10466000804617F01F0050EA0800184964B251F85C
:1046700024108872154864B250F82400007C50F071
:104680008800124964B251F8241008740F4864B2CB
:1046900050F82400C07850F00C000C4964B251F876
:1046A0002410C870BDE8F183084A40B252F82020B7
:1046B00012791206F8D5054A40B252F82020D1717D
:1046C000704700003480044028800440C00BFF1F66
:1046D000C40FFF1FCC0FFF1F046E000010B50400B5
:1046E00064B2082C0DDA00220021224864B2205C5A
:1046F000FDF784FE03211F4864B2205CFFF7D6FB60
:1047000014E0082004002000441E40B200280DD010
:1047100000220021174864B2205CFDF76FFE0321E0
:10472000144864B2205CFFF7C1FBECE710BD10B584
:104730000400104864B2205CFDF7D3FE002801D1CC
:10474000002000E0012010BD10B50400200040B2A0
:10475000FFF7EDFF00280AD10A20FEF7B8FF20007E
:1047600040B2FFF7E4FF002801D1002000E0012063
:1047700010BD0000E40BFF1F4FF4001C1CEB410FA9
:1047800094BF1CEB430F09E041EA030C50EA4C0CC8
:1047900052EA0C0C03D28B4208BF8242704714BF0E
:1047A0009942904270470000D0B52DED048B04462D
:1047B00082B094ED008B4748474953EC182BFCF727
:1047C00073FDCDE9000100220023FFF7D5FFDDE9ED
:1047D000002399BF0020414900204149FDF79EF880
:1047E000CDE90001002100A800F098F8DDE90023E0
:1047F0000020002100F0D2F84ED03A49FCF754FDD9
:1048000041EC190B53EC192B4FF0A0403649FCF743
:104810004BFD02460B4651EC180BFCF77FFF06469A
:104820000F4653EC192B4FF0C0403049FCF73CFDCC
:1048300002460B4630463946FCF770FF06460F46E7
:1048400053EC192B4FF000502949FCF72DFD02467F
:104850000B4630463946FCF761FF06460F4653ECDF
:10486000192B00202349FCF71FFD02460B4630465A
:104870003946FCF753FF06460F4653EC192B4FF011
:1048800000501D49FCF710FD02460B4630463946E4
:10489000FCF744FF41EC180B84ED008BDDE90001CF
:1048A000164A174BFCF7E8FC04D3164A164BFFF7E1
:1048B00063FF05D80022154B00F080F8CDE9000118
:1048C000DDE90001FCF7E6FE02B000F00300BDECFC
:1048D000048BD0BD83C8C96D305FE43F0000E03F6A
:1048E0000000E0BF0000303EFB21B941B410114090
:1048F00026A6513E5C14D33C9A833B3B0000C0FF8C
:10490000FFFFDFC10100C0FFFFFFDF410000E0410A
:104910000148FDF777B80000D410FF1F4268C2F3CA
:104920000A5240F2FF739A4209D14168090304BF59
:104930000068002801D101207047022070474368B9
:104940005B0004BF0368002B25D040F233439A1A62
:10495000521A012A1FDB352A06DB416801F00041AB
:1049600041600021016013E0012102F01F03994022
:10497000491E920607D5426811404A4042600268CB
:104980001143002202E0026811404A40026011B166
:104990004FF0FF30704700207047000090420CD16C
:1049A00041EA030C50EA4C0C07D0994205D14FF470
:1049B000001C1CEB410F38BF8942704770B540F2B4
:1049C000FF7601F0004C5B0006EA11545D0D1ABF42
:1049D000B442B54278E0B3EB410F08BF82424BD2FC
:1049E000C3F3530343F48013C1F3130141F4801163
:1049F000641B0B3C13D9C90241EA5051B1FBF3FED1
:104A000003FB1E11A2FB0EE6DEEBC020B14101D27A
:104A10008018594150EA010653D00B3CEBD80B34B7
:104A2000C4F12006A14020FA06F6A0403143B1FBB4
:104A3000F3FE03FB1E11A2FB0EE6B0EB0E00B1412C
:104A400001D28018594102BF0146203D0020C1B368
:104A5000B1FA81F39940C3F1200220FA02F2114326
:104A60009840ED1A0A3509DBC00A40EA41504CEA89
:104A7000D12101EB055170BD23D070BDD5F10B05DF
:104A8000B5F120020DDAC5F120020300E84001FA79
:104A900002F6E940934073F10043704151EB0C0181
:104AA00070BD402D0DDC430821FA02F0C2F1200553
:104AB00011FA05F6334373F1004370415CF10001D4
:104AC00070BD6146002070BD53EA020E1ABFB442A9
:104AD000B54237E0B3EB410F08BF8242CCD25B084E
:104AE000B3FA83F504BFB2FA82F6AD190B3DB5F106
:104AF000200624BF02FA06F305E0AB40C5F120060C
:104B000022FA06F63343AA40D5F1010524427FF488
:104B10006BAF31F00041B1FA81F404BFB0FA80F616
:104B2000A4190B3CB4F1200624BF00FA06F105E0FD
:104B3000A140C4F1200620FA06F63143A040D4F18A
:104B4000010455E74FF4001515EB410F2CBF6FF032
:104B50000041EB4218BF6FF00041BDE87040C0F06B
:104B6000018070471FB5FFF7D3FE212101601FBDF3
:104B70000000D0400101000000B0034000B00B4035
:104B80000000000000000000000000000000000025
:104B900000000000000000000000000000004E6F58
:104BA0006E4D61736B61626C65000000004861725C
:104BB000644661756C740000000000004D656D4D29
:104BC000616E6167656D656E740000427573466164
:104BD000756C740000000000000055736167654645
:104BE00061756C740000000000000000000000000F
:104BF00000000000000000000000000000000000B5
:104C000000000000000000000000000000000000A4
:104C10000000000000000000000000000000000094
:104C20000000000000535643616C6C00000000005F
:104C30000000000044656275674D6F6E69746F72A5
:104C40000000000000000000000000000000000064
:104C5000000050656E645356000000000000000024
:104C6000005379735469636B00000000000000007A
:104C7000444D4130000000000000000000000044EE
:104C80004D41310000000000000000000000444DD4
:104C900041320000000000000000000000444D41CF
:104CA000330000000000000000000000444D4134CB
:104CB0000000000000000000000000444D413500ED
:104CC00000000000000000000000444D41360000DC
:104CD000000000000000000000444D4137000000CB
:104CE0000000000000000000444D413800000000BA
:104CF00000000000000000444D41390000000000A9
:104D0000000000000000444D413130000000000070
:104D10000000000000444D4131310000000000005F
:104D200000000000444D413132000000000000004E
:104D3000000000444D41313300000000000000003D
:104D40000000444D4131340000000000000000002C
:104D500000444D413135000000000000000000001B
:104D6000444D415F4572726F720000000000004DBB
:104D7000434D000000000000000000000000465409
:104D8000464C000000000000000000000052656179
:104D9000645F436F6C6C6973696F6E004C56445F5F
:104DA0004C565700000000000000004C4C5700001B
:104DB0000000000000000000000057617463686498
:104DC0006F6700000000000000524E470000000026
:104DD00000000000000000004932433000000000E5
:104DE00000000000000000493243310000000000D4
:104DF0000000000000005350493000000000000097
:104E00000000000000535049310000000000000085
:104E10000000000053504932000000000000000074
:104E200000000043414E305F4F525F4D425F62755C
:104E3000660043414E305F4275735F4F6666000007
:104E40000043414E305F4572726F720000000000F7
:104E500043414E305F54785F5761726E696E6743AD
:104E6000414E305F52785F5761726E696E674341A1
:104E70004E305F57616B655F55700000005265737F
:104E80006572766564353100000000005265736517
:104E9000727665643532000000000043414E315F98
:104EA0004F525F4D425F6275660043414E315F4233
:104EB00075735F4F666600000043414E315F457277
:104EC000726F72000000000043414E315F54785F02
:104ED0005761726E696E6743414E315F52785F571A
:104EE00061726E696E6743414E315F57616B655FFA
:104EF000557000000052657365727665643539003F
:104F000000000000526573657276656436300000FB
:104F100000000055415254305F52585F5458000011
:104F2000000055415254305F4552520000000000CD
:104F30000055415254315F52585F545800000000F0
:104F400055415254315F4552520000000000005557
:104F5000415254325F52585F54580000000055418E
:104F60005254325F45525200000000000055415239
:104F700054335F52585F545800000000554152545A
:104F8000335F455252000000000000554152543436
:104F90005F52585F54580000000055415254345F2E
:104FA00045525200000000000055415254355F52F6
:104FB000585F54580000000055415254355F455227
:104FC0005200000000000041444330000000000097
:104FD00000000000000041444331000000000000D8
:104FE0000000000000434D503000000000000000B1
:104FF00000000000434D50310000000000000000A0
:10500000000000434D50320000000000000000008E
:10501000000046544D300000000000000000000079
:105020000046544D31000000000000000000000068
:1050300046544D3200000000000000000000004314
:105040004D54000000000000000000000000525419
:1050500043000000000000000000000000526573E3
:1050600065727665643833000000000050495430A2
:105070000000000000000000000000504954310012
:105080000000000000000000000050495432000001
:1050900000000000000000000050495433000000F0
:1050A00000000000000000005044423000000000FA
:1050B00000000000000000555342300000000000D6
:1050C000000000000000555342444344000000002B
:1050D0000000000000454E45545F313538385F54BC
:1050E000696D6572454E45545F5472616E736D69AA
:1050F000740000454E45545F5265636569766500EE
:105100000000454E45545F4572726F72000000000A
:105110000049325330000000000000000000000091
:105120005344484300000000000000000000004419
:105130004143300000000000000000000000444136
:1051400043310000000000000000000000545349FB
:105150003000000000000000000000004D43470048
:1051600000000000000000000000004C5054696D79
:1051700065720000000000000000526573657276E1
:10518000656431303200000000504F52544100003D
:105190000000000000000000504F52544200000088
:1051A00000000000000000504F5254430000000077
:1051B000000000000000504F525444000000000066
:1051C0000000000000504F52544500000000000055
:1051D00000000000526573657276656431303800F6
:1051E00000000052657365727665643130390000E5
:1051F00000005265736572766564313130000000DD
:1052000000526573657276656431313100000000CB
:105210005265736572766564313132000000005268
:105220006573657276656431313300000000526544
:105230007365727665643131340000000052657325
:105240006572766564313135000000005265736522
:105250007276656431313600000000526573657204
:1052600076656431313700000000526573657276EF
:1052700065643131380000000052657365727665EF
:105280006431313900000000008003400090034089
:1052900000800B4000900B4000F00F4040F00F40AA
:1052A00080F00F40C0F00F4000F10F4001000000FF
:1052B00066000A1D32000701640007106E00040634
:1052C000780004088200040A8C00040C9600040E86
:1052D000A0000410AA000412B4000414BE000416B6
:1052E000C8000418D200041ADC00041CE100041DEC
:1052F000E600041EEB00041FF4000317FA00031875
:10530000130101062C010214000109080090044059
:1053100000A0044000B0044000C0044000D004409D
:1053200000A0064000B0064000C0064000D0064085
:1053300000A00E4000B00E400000F0410000C04050
:10534000282300006A6E6B6C676D4E4F343536371C
:1053500002040101D00FFF1F2010FF1FD00FFF1FFD
:10536000D00FFF1FD00FFF1F2D0CFF1F140CFF1FAE
:10537000000000000000000000000000000000002D
:10538000000000000000000000000000000000001D
:10539000027882704278C270C8220270C8224270BD
:1053A0000289002A02D00289FF2A00D16FE0028917
:1053B000C37D9BB29A4224D2028990F880309BB27E
:1053C0009A421ED2012211006A2960DA0A18D27D9F
:1053D000038992B29A4205D24278C82A02D111F1C9
:1053E0000A024270421A92F88020038992B29A42CD
:1053F00005D20278C82A02D1D1F173020270491C89
:10540000E2E7028990F84D309BB29A421FD2012206
:10541000110033293BDA4278C82A09D102890B18D6
:1054200093F84D309BB29A4202D311F14002427080
:105430000278C82A09D10289431A93F84D309BB2E9
:105440009A4202D3D1F140020270491CE1E70122E5
:10545000110033291BDA0278C82A09D102890B18F6
:1054600093F84D309BB29A4202D211F14002027081
:105470004278C82A09D10289431A93F84D309BB269
:105480009A4202D2D1F140024270491CE1E77047D2
:105490004178C82921D10178C8291ED0C178C829EE
:1054A00002D18178C82904D0B0F90A1011F11E0F79
:1054B00006DAB0F90A1011F11E0F01DAC8210170E5
:1054C000002180F8A51090F8A610012903D090F8CB
:1054D000A410012901D1C82101704178C8291FD029
:1054E0000178C8291CD1C178C82902D18178C8297E
:1054F00003D0B0F90A101F2905DBB0F90A101F29E3
:1055000001DBC8214170002180F8A41090F8A6109A
:10551000022903D090F8A510012901D1C8214170BA
:105520004178C8292CD00178C82929D0002180F8D9
:10553000A61041780278914222D2C178C82913D0AE
:105540008178C82910D0417802785118802905DA6D
:10555000C8214170012180F8A51011E0C821017017
:10556000012180F8A4100BE0B0F90A10012901DB39
:10557000C8214170B0F90A10002901D5C821017075
:105580004178C82922D10178C8291FD10189027B1D
:1055900092B291421AD2C178C82905D08178C8291F
:1055A00002D1012180F8A610C178C82905D18178DF
:1055B000C82902D0022180F8A610C178C82905D0D8
:1055C0008178C82902D0032180F8A610704741785D
:1055D000C82921D10178C8291ED0C178C82902D193
:1055E0008178C82904D0B0F90A1011F10F0F06DA3A
:1055F000B0F90A1011F10F0F01DAC8210170002172
:1056000080F8A51090F8A610012903D090F8A410F6
:10561000012901D1C82101704178C8291FD0017822
:10562000C8291CD1C178C82902D18178C82903D0E2
:10563000B0F90A10102905DBB0F90A10102901DBB6
:10564000C8214170002180F8A41090F8A61002290A
:1056500003D090F8A510012901D1C82141704178EB
:10566000C82922D10178C8291FD10189027B92B2B1
:1056700091421AD2C178C82905D08178C82902D1AF
:10568000012180F8A610C178C82905D18178C829E0
:1056900002D0022180F8A610C178C82905D08178EF
:1056A000C82902D0032180F8A6104178C8292CD03F
:1056B0000178C82929D0002180F8A6104178027805
:1056C000914222D2C178C82913D08178C82910D03C
:1056D000417802785118802905DAC82141700121EA
:1056E00080F8A51011E0C8210170012180F8A410F4
:1056F0000BE0B0F90A10012901DBC8214170B0F9B3
:105700000A10002901D5C8210170704710B400218A
:105710004278C82A57D00278C82A54D042780378F1
:105720009A18022392FBF3F23F3A4281002280F85A
:10573000A620002280F8A420002280F8A52003786B
:105740004478A3423FD203785B1D1A0043780A3B9A
:10575000D2B293421EDBD2B213185B7BD2B21418C2
:10576000A47C1B1B1D2B04DBAA4B1B785B1CA94CC8
:105770002370D2B213185B7BD2B21418A47C1B1B0B
:1057800013F11C0F04DAA44B1B785B1CA24C237092
:10579000521CDBE7A04B1B78A04C23709D4B1B7861
:1057A0009F4C23709C4B1B78002B03D1994B1B788B
:1057B000002B08D09B4B1B6844F63924A34202DB24
:1057C0000123994C23704278C82A0DD00278C82A48
:1057D0000AD142784379D21A4281B0F90A20002ACC
:1057E00002D45FF0FF3242814278C82A0CD102789D
:1057F000C82A09D002780379D21A4281B0F90A2066
:10580000012A01DA012242814278C82A1FD1027896
:10581000C82A1CD1B0F88E20428190F8A620002A18
:1058200015D1B0F90A20002A07D5B0F90A2012F1E3
:10583000450F02DB7FF045024281B0F90A20012AC0
:1058400005DBB0F90A20462A01DA46224281092204
:105850001100012909DB10EB4102B2F88C2010EB9A
:105860004103A3F88E20491EF3E74289A0F88E2059
:1058700010BC704700214278C82A13D00278C82A89
:1058800010D0427803789A18022392FBF3F23F3A41
:105890004281002280F8A620002280F8A420002265
:1058A00080F8A5204278C82A0DD00278C82A0AD1EB
:1058B00042784379D21A4281B0F90A20002A02D4F0
:1058C0005FF0FF3242814278C82A0CD10278C82AA0
:1058D00009D002780379D21A4281B0F90A20012A4C
:1058E00001DA012242814278C82A05D10278C82A09
:1058F00002D1B0F88E20428109221100012909DB72
:1059000010EB4102B2F88C2010EB4103A3F88E207B
:10591000491EF3E74289A0F88E20704780B54348BE
:10592000B0F90A00012803DB4048B0F90A0003E09F
:105930003E48B0F90A0040420A2803DB3C483D4992
:10594000016002E03A48002101603B483A49496859
:10595000816039483849096841603448B0F90A0023
:1059600000EE100AB8EEC00A334880ED000A40F29B
:10597000FF50324991ED000A2F49D1ED000A20EE87
:10598000200A2D49D1ED000A2B4991ED011A70EE44
:10599000C10A274991ED001A00EE810ABDEEC00A46
:1059A00010EE101A09B2401A00EE100AB8EEC00A42
:1059B000234880ED000A224890ED000ADFED130A2B
:1059C000B4EE600AF1EE10FA02DB1D481D490160D9
:1059D0001B4890ED000ADFED0E0AB4EE600AF1EE0E
:1059E00010FA02D516480A490160154890ED000AE0
:1059F000BCEEC00A10EE102A02210320FDF705FDBF
:105A000011480F490968016001BD00000100DC4434
:105A100000C0A3443D10FF1F3C10FF1F3E10FF1F9E
:105A20003F10FF1F980FFF1F4510FF1F200EFF1F85
:105A3000840FFF1F00004041700FFF1F1004FF1F65
:105A4000800FFF1F0000DC447C0FFF1F0100481E79
:105A5000002906D0002189B2B429F7DA00BF491C19
:105A6000F9E7704770B504000026E4B2012C41D17B
:105A70000120DFF8141408600120FFF7E7FF012080
:105A8000DFF8081408600120FFF7E0FF0020DFF8CE
:105A9000F81308600120FFF7D9FF00200500EDB2E0
:105AA000802D19DA0120FFF7D1FF0120DFF8DC1388
:105AB00008600120FFF7CAFF00211220FCF739FE21
:105AC0001938DFF8CC13EDB2691848730020DFF8FD
:105AD000BC1308606D1CE2E70120FFF7B7FF01204F
:105AE000DFF8A81308600120FFF7B0FF0020DFF8FF
:105AF0009C130860E4B2022C40D10120DFF880132F
:105B000008600120FFF7A2FF0120DFF8781308608A
:105B10000120FFF79BFF0020DFF8641308600120DD
:105B2000FFF794FF00200500EDB2802D18DA012068
:105B3000FFF78CFF0120DFF84C1308600120FFF70E
:105B400085FF00211120FCF7F4FDDFF84813EDB2CA
:105B5000691848730020DFF82C1308606D1CE3E718
:105B60000120FFF773FF0120DFF818130860012000
:105B7000FFF76CFF0020DFF80C13086070BD7FB4E6
:105B800000252C00052C05DA25186D7B02AEA555E5
:105B9000641CF7E700252C007B2C3EDA0025290049
:105BA000052905DA02AD4D5D00AE8D55491CF7E7BC
:105BB0000025290005291BDA00252A00D1F104055A
:105BC000AA4213DA00AD55196D7800AE965DB54264
:105BD0000AD200AD555D2B0000AD55196D7800AEB1
:105BE000955500AD55196B70521CE7E7491CE1E76C
:105BF0009DF802502618F57300252900042906DABD
:105C000002AD4D196D7802AE8D55491CF6E7251889
:105C1000AD7C8DF80C50641CBEE77FBC704710B49F
:105C2000002300242200D2B2C0B2824205D20C78F6
:105C300053FA84F3491C521CF5E7C0B2B3FBF0F0F1
:105C4000C0B210BC70472DE9F04FADF2244D0400F6
:105C500000270020079000208DF810005FF0000A58
:105C60000020089000255FF0000900265FF0000882
:105C70000020069000200590FF208DF811000020E4
:105C80000700FF2F05DC002009A941F827007F1C31
:105C9000F7E7A0790700E079B84219DB3819407BB3
:105CA00083469DF811005FFA8BFB834501D28DF886
:105CB00011B009A85FFA8BFB50F82B00401C09A912
:105CC0005FFA8BFB41F82B0059FA8BF97F1CE2E756
:105CD00000200700FF2F47DC09A850F82700002804
:105CE00040D009A850F8270010EB080894F8A2004B
:105CF0005FFA88F8804537D009A850F8270007FBDD
:105D0000005594F8A200B0EB08000600B9EB0500BE
:105D100008905FFA88F8B5FBF8F005900898F6B29D
:105D2000B0FBF6F0069006980599401A0699059A78
:105D3000891A48435FFA88F808FB00F0F6B270430E
:105D400094F8A21094F8A220514390FBF1F0079030
:105D50000798824506DA0798824684F8A3A038009F
:105D60008DF810007F1CB5E700208046002006005B
:105D70004948007800280DD1A0790700E079B842A1
:105D800016DB9DF810003919497B884200D2761C39
:105D90007F1CF3E7A0790700E079B84208DB20898F
:105DA0003919497B89B2884200D2761C7F1CF3E7FF
:105DB000D6F1800080464846FBF7A2FCCDE90201FF
:105DC0005FFA88F84046FBF79BFC0022334BFBF759
:105DD0006BFACDE90001F6B23000FBF791FC00222E
:105DE0002F4BFBF761FADDE90023FBF797FD02007B
:105DF0000B00DDE90201FBF729FBFBF74BFC264911
:105E00000870BAF10F0F08DA207B372802DAFF207A
:105E1000208131E0002020812EE09DF81000FBF76A
:105E20006FFC00221D4BFBF73FFACDE900011D4836
:105E30000078FBF765FC0022184BFBF735FADDE92B
:105E40000023FBF76BFD0022144BFBF72DFACDE985
:105E500000012089FBF754FC0022104BFBF724FAC9
:105E6000DDE90023FBF75AFDFBF714FCC0B22081EB
:105E7000094800780B4908700DF2244DBDE8F08FF9
:105E80001820FE432020FE432820FE433020FE43FE
