:10000000F8FF002011040000172F0000172F000038
:10001000172F0000172F0000172F0000172F0000C8
:10002000172F0000172F0000172F0000172F0000B8
:10003000172F0000172F0000172F0000172F0000A8
:10004000172F0000172F0000172F0000172F000098
:10040000FFFFFFFFFFFFFFFFFFFFFFFFFEFFFFFFFD
:1004100062B605F09FF8FEE72DE9F04FA1B08246E5
:10042000002017461D4602910B900DF1440B6FF012
:1004300000490AE017F8011B0298D04702900028F3
:1004400000F0A2820B98401C0B90387808B90B98EA
:100450009CE22528EED10020059006900790089098
:1004600009900A9001E040F0010017F8011F2029CF
:10047000F9D023290DD02B2904D02D2906D03029DD
:100480000AD00CE040F0020080B2EEE740F0040039
:10049000FAE740F00800F7E740F01000F4E72A29F7
:1004A0000ED12968296051F8042B2960002A0D9289
:1004B00004D5514240F004000D9180B27F1C11E040
:1004C00000210D9109E00D99494505D001EB81030B
:1004D00002EB430130390D917F1C3A78A2F13001D3
:1004E0000A29F0D339782E2903D04FF0FF310C912F
:1004F0001DE017F8011F2A2907D1296829607F1CF0
:1005000051F8042B29600C9211E000210C9109E0B4
:100510000C99494505D001EB810302EB43013039C9
:100520000C917F1C3A78A2F130010A29F0D3ADF882
:1005300038000FF6B820397800F076FD08B117F8CA
:10054000010B8DF83A009DF83A00682802BF39780F
:100550006829622005D06C2804BF38786C2803D144
:1005600071208DF83A007F1C11A8049017F8014BF8
:10057000B4F1250024D02038022840F2C580133879
:1005800000F0EB800B3800F04F81401E00F024811A
:10059000401E022840F2B880001F00F01D81401F5D
:1005A00000F08380401E00F0D880401E29D0C01E7D
:1005B0000CD0801E00F0D180C01E00F0CE803DE146
:1005C0000120059025208DF8440043E1286828602B
:1005D00050F8044B28600394DDF83080B8F1000F28
:1005E00004D5204600F02CFD804607E0424600215D
:1005F000204600F041FD08B1A0EB0408CDF81880BA
:1006000028E1296829604FF03C0851F8040B296063
:100610000021CDE9000111A80390DDE90001049C4F
:1006200011B908B90C9AC2B10206120FA0EB02125E
:100630003032D2B23A2AA8BF27320009A8F101030A
:1006400040EA017009091A5508BF0028984604D0ED
:10065000039A08EB04039A42E6D308EB04000390E4
:10066000C8F13C010C980691814209DA401A0890C1
:100670004FF6EF71BDF838000840ADF83800E9E0FA
:10068000002840F1E7809DF8380000F014001028A1
:1006900040F0E0800D98059A801A089A801A401A56
:1006A0000128C0F2D7800890D4E09DF83A00622873
:1006B0001AD0682806D06A280CD06C281CD0712863
:1006C00008D019E02868286050F8041B28600B98AF
:1006D0000880BFE02868286050F8042B28600B9839
:1006E000C117C2E90001B5E02868286050F8041B72
:1006F00028600B980870ADE02868286050F8041B4B
:1007000028600B980860A5E02868C01D20F007024B
:100710002A60D2E9000108322A60CDE900010029EF
:1007200003D5012005902D200CE0BDF8380081078D
:1007300003D5012005902B2004E0C00704D501203B
:10074000059020208DF84400059911A80818039001
:10075000214600A800F0D8F97CE09DF83A206C2AE8
:100760000DD0712A18BF6A2A09D12868C01D20F04F
:1007700007032B60D3E9000108332B6005E02968EB
:10078000296051F8040B29600021CDE90001682A95
:1007900008BF80B207D0622A08BFC0B203D0742A53
:1007A00018BF7A2A02D10021CDE900019DF8380056
:1007B000000730D5DDE90001002908BF00282AD054
:1007C00044F02000782826D130208DF844008BF8A2
:1007D0000140022005901EE09DF83A00294600F0F5
:1007E000D8F8CDE90001002904DA0598411C0591EB
:1007F0002D210EE0BDF83800810704D50598411C75
:1008000005912B2105E0C00705D50598411C0591F0
:10081000202100F80B10059911A808180390214613
:1008200000A800F0EDF815E0012005902868286088
:1008300050F8041B28608DF844100BE0012005904F
:100840002520002C8DF8440004D00598411C05910A
:1008500000F80B400D980599401A0899401A06991E
:10086000401A0999401A0799401A0A99A0EB010801
:100870009DF8380040070FD420208DF84000002458
:1008800008E0012310AA00A9504600F098FB0028B8
:100890007AD1641C4445F4DB059C11AE0AE016F8DD
:1008A000011B0298D047029000286DD00B98401C85
:1008B0000B90641E002CF2D130208DF840000026F1
:1008C000089C08E0012310AA00A9504600F077FB1D
:1008D000002859D1761CA642F4DB069C039E0AE050
:1008E00016F8011B0298D047029000284CD00B98B4
:1008F000401C0B90641E002CF2D130208DF840007B
:100900000026099C07E0012310AA00A9504600F028
:1009100056FBC8BB761CA642F5DB03980699079CDC
:100920000E1809E016F8011B0298D047029058B340
:100930000B98401C0B90641E002CF3D130208DF8D6
:10094000400000260A9C07E0012310AA00A9504697
:1009500000F035FBC0B9761CA642F5DB9DF83800E7
:1009600040077FF572AD20208DF84000002400E0A4
:10097000641C4445BFF669AD012310AA00A9504686
:1009800000F01DFB0028F3D04FF0FF3021B0BDE890
:10099000F08F622826D068281DD06A2808D06C28DD
:1009A00027D0712804D0742823D07A280CD020E0D6
:1009B0000868C01D20F007000860D0E90023083057
:1009C00008601946104670470A680A6052F8040B1E
:1009D0000A60002170470A680A6052F8040B0A6036
:1009E00000B20BE00A680A6052F8040B0A6040B2D9
:1009F00004E00A680A6052F8040B0A60C1177047E5
:100A00002DE9FA4E05460A462F696F2A08BF0824C9
:100A100005D041F02000782814BF0A2410243C2679
:100A2000D5E90001642A18BF692A81468A4605D1A2
:100A3000002903DAD9F100096AEB4A0ABAF1000F7A
:100A400008BFB9F1000F0CD1286B50B9082C36D172
:100A500095F83800000732D530203B2687F83B0058
:100A60002DE0E31748465146224600F031FBA4FB37
:100A70000023A9EB02023032D2B2A6F1010B3A2ACE
:100A80005E4603DB9DF80030513B9A1881465FEAD1
:100A9000010A0BF8072008BFB9F1000F03D0E8687E
:100AA000F1198842DDD3082C09D195F838000007E8
:100AB00005D5F05D302802D0761E3020F055C6F105
:100AC0003C00A861F119E960296B884208DA081A2C
:100AD00028624FF6EF71288F08402887BDE8F38E13
:100AE00000290ED595F8381001F01401102908D10D
:100AF000696B6A69891A2A6A891A081A0128A8BFC3
:100B00002862BDE8F38E00002DE9F34F8BB0D0E9E9
:100B10000089006B002801AF48BF062005D404BF40
:100B200041F02000672802D101200B99086340F2B0
:100B3000FF720B984168C1F30A50904220D108031C
:100B400002BF0B98006800280AD10B990320886126
:100B50009DF8300061381A2858D30FF2A44109E0FB
:100B60000B99032088619DF8300061381A284AD318
:100B70000FF284410B98C068032200F021FB00E1D2
:100B8000012807DA0B9800F056FB012802DB00234E
:100B90000026EDE00B9ADFF854B1526840F2FE31C6
:100BA00061F31E520B994A6040F2FE31461A4046EC
:100BB00049460022002300F05FFB38BF89F000495E
:100BC00036B247F297507043494990FBF1F636B27E
:100BD000C6F10707012F92461BDBF80707D55246DF
:100BE0005B464046494600F05FFB804689467F10E1
:100BF0005046594652465B4600F056FB002F82464F
:100C00008B46EAD126E00FF2EC31B3E70FF2EC317C
:100C1000B0E77F420024374D12E0F80707D552466F
:100C20005B462046294600F03FFB04460D467F10F8
:100C30005046594652465B4600F036FB82468B468C
:100C4000002FEAD14046494622462B4600F0FEFBE3
:100C5000804689469DF830000B99DFF89CB0096BFF
:100C600040F02005662D0CBF06F10A00062047184B
:100C7000142FA8BF132730208DF804000DF10504B0
:100C8000012F3BDB4046494600F01AFD014604F1C6
:100C9000080204234FF00A0CB1FBFCFC0CEB8C04A3
:100CA000A1EB4401303102F8011D0A21BCFBF1FE29
:100CB0000EEB8E04ACEB440430345B1E714602F83C
:100CC000014DE7D1083F012F02F10804D8DB00F005
:100CD0000DFD02460B464046494600F015FD002238
:100CE0005B4600F0E1FA80468946CBE700002440ED
:100CF000A08601000000F03F84D797410DF1050068
:100D0000201A0DF1050702E0401E761E7F1C39787F
:100D10003029F9D0662D02D136B2711C03E0652D61
:100D20000CBF012100210B9A126B8B181BB2984249
:100D3000B8BF03461BB219001AD4814204DAC85D59
:100D40003528A8BF392000DA3020CA19521E00E029
:100D50005B1E12F80159491E8542F9D0392802D18B
:100D6000C85D401CC855002902D57F1E5B1C761C3F
:100D700036B29DF830100B9800961BB23A4600F040
:100D800003F80DB0BDE8F08F2DE9F04786B00646B8
:100D90008A4690461D4600F094FD406A376B90F8F5
:100DA0000090012D02DA01250FF258284AF02000A8
:100DB000BDF93840662808BF641C13D0672840F08E
:100DC000888014F1040F73DBBC4271DA96F83800A6
:100DD000641C000702D4BD42B8BF2F4624B23F1B9B
:100DE00048BF002724B2F068B169012C21DA4A1CFF
:100DF00030230B54012F03DA96F83810090702D577
:100E000002F80090521CE742B8BF7C4224B2614213
:100E1000E719AF42B261B8BF3D4671622DB2F561CC
:100E20002A46B3694146181800F0CAF9781BB06227
:100E3000AEE00818A54216DA2A46414600F0C0F98D
:100E4000B1696918601BB161012F706203DA96F80D
:100E50003800000705D5F06801F80090F069401CE3
:100E6000F061B76294E02246414600F0A9F9B0690A
:100E700020182D1B012F03DA96F83810090703D527
:100E8000F16800F80190401CB0612DB2AF42B8BFCC
:100E90003D46F068B3692DB22A4604EB08011818E4
:100EA00000F08EF9B0692818B061781B70626FE0AD
:100EB000BD4204DA96F83810090758BF2F467F1E46
:100EC00048BF0027BAF1670F0CBF4FF0650A4FF01B
:100ED000450AB169F06818F8013B0B544A1C012F10
:100EE00005DA96F83810090758BFB26115D502F82F
:100EF0000090531C012FB3610FDB6D1E2DB2AF426A
:100F0000B8BF3D462DB22A464146181800F058F9A0
:100F1000B0692818B061781B7062F068B16901EBA4
:100F20000008200008F801AB03D42B2008F8010BBF
:100F300003E02D2108F8011B6442002502AF08E000
:100F40000A2200A800F0D6FC019807F8010B6D1CDE
:100F5000009C21B20129F3DA022D06DA4AF02000C2
:100F6000652804BF302008F8010B4DB9302008F87F
:100F7000010B07E06D1E02A8285C303008F8010B59
:100F8000012DF7DAF068B1690818A8EB0000F061EC
:100F900096F8380000F0140010280DD17069B1697E
:100FA0000818716A0818F1690818B16A0818716B95
:100FB0008842BCBF081A306206B0BDE8F087F8B5B9
:100FC00004460D4616461F46002004E0E86A401C11
:100FD000E8627F1E002047B116F8011BA868A047F1
:100FE000A8600028F2D14FF0FF30F2BD686A6C743F
:100FF0007A4C00006E616E004E414E00696E6600D4
:10100000494E4600300050F8041B61B150F8042BE3
:10101000D30744BFA9F101039A180023091F42F81E
:10102000043BFAD1EFE770470278C9B28A421AB19D
:101030001CBF10F8012FF9E718BF0020704700000F
:1010400000F10103810704D010F8011B89B1810769
:10105000FAD10268B2F10131914311F0803F04BF2F
:1010600050F8042FF6E710F8011B11B110F8011B1E
:10107000FBE7C01A70470000C9B2830706D0521EB2
:1010800022D310F8013B9942F7D11FE0083A13D35D
:1010900002F1040241EA012141EA014150F8043B16
:1010A000121F21BF4B40A3F1013C2CEA030C1CF0A2
:1010B000803FF3D0C9B2001F083210F8013B521E26
:1010C00028BF91EA030FF8D818BF0120401E7047CF
:1010D0001B4213D1094236D12AB18446B0FBF2F04B
:1010E00002FB10C2704700F00DBCFCD300220023AD
:1010F00070470B000200002100207047904271EB06
:10110000030CF6D370B5B1FA81F4B3FA83F52C1B56
:10111000A340C4F1200532FA05F63343A2405FF044
:101120000046E64002E05B085FEA3202841A71EB97
:10113000030524BF204629467641F4D302000B0064
:101140003000002170BD012ACFD970B5140C20D019
:10115000B1FA81F4B2FA82F5C4F120046419B4F151
:101160002006D6D3B2405FF00044F440002502E0F0
:1011700052085FEA3303C61A71EB020E24BF3046F1
:10118000714664416D41F3D302000B002000290039
:1011900070BD0C46B1FBF2F102FB11452D0445EA8E
:1011A0001045B5FBF2F402FB145580B240EA054548
:1011B000B5FBF2F002FB105240EA044070BD0000A3
:1011C00062B38B0708D0521E11F8013B00F8013BB7
:1011D00000F024808B07F6D1830740F0208000BF09
:1011E000103A07D330B4B1E83810103AA0E83810FC
:1011F000F9D230BC530724BFB1E80810A0E80810AA
:1012000044BF51F8043B40F8043BD20724BF31F8F7
:10121000022B20F8022B44BF0B7803707047083A6A
:1012200007D3B1E80810083A40F8043B40F804CB73
:10123000F7D25307E4E730B4436803F000420121DA
:101240001B031B0B436004BF0368002B08D10DE098
:101250000368DD0F45EA440444605B000360491EF7
:101260004468E302F4D523031B0B436043681A432D
:101270004260084630BC70474FF4001C1CEB410F25
:1012800094BF1CEB430F09E041EA030C50EA4C0CFD
:1012900052EA0C0C03D2994208BF9042704714BF27
:1012A0008B42824270470000B0B581EA030C0CF01B
:1012B000004C40F2FF7515EA11541DBF15EA135793
:1012C000AC42AF4239E0E41923EA455343F48013BA
:1012D000C90241F0004141EA505EC7021100A7FB7C
:1012E000020200284FF00000EEFB01204FF0000149
:1012F000E3FB072118BF42F00102401800214941D9
:10130000E3FB0E01A4F580640F0302D252004041BA
:10131000494154F101046CDD470872F1004250F17B
:10132000000051EB0451A1F580115CBF41EA0C01B2
:10133000B0BD4CEA05510020B0BD05EA1357AC42E0
:1013400014BFAF4241E050EA410E1CBF52EA430EC7
:1013500002E061460020B0BD24423C441BD15FEA5C
:10136000070EF6D0090302BF01460020AEF1140EAD
:10137000B1FA81F7AEEB070401FA07FE0C37C7F1AB
:10138000200100FA07F7C8404EEA000E23EA455351
:1013900043F48013A2E733F00043B3FA83F704BFAA
:1013A000B2FA82FE77440B3FE41BB7F1200E2FBF49
:1013B00002FA0EF3BB40C7F1200E22FA0EFE38BF30
:1013C00043EA0E03BA40641C82E750EA410E14BFA0
:1013D00052EA430E6FF000014FF4001717EB430F72
:1013E0008ABF194617EB410FB5E74CEA05510020BB
:1013F000B0BDD4F10104B4F120070FDAC4F1200725
:10140000520828BF42F0010210FA07F501FA07F767
:10141000E1BF2A43E0403843E1400FE0352C98DC3F
:10142000C7F1200452EA400220FA07F218BF42F046
:10143000010231FA07F0A1400A43002172F1004293
:1014400050F1000051EB0C01B0BD0000F0B540F2CE
:10145000FF7581EA030C0CF0004C15EA11541DBF16
:1014600015EA1357AC42AF42E5E0BC41C1F31301AA
:10147000C3F31303801A994143F4801304D2641E0A
:101480004000494180185941C90241EA5051B1FB1D
:10149000F3F603FB1611A2FB0675D7EBC020A9419A
:1014A00002D2761E80185941C90241EA5051B1FB5F
:1014B000F3FE03FB1E11A2FB0E75D7EBC020A94162
:1014C00003D2AEF1010E80185941890241EA9051D0
:1014D000760546EA8E2EB1FBF3F603FB1611A2FB4E
:1014E0000675D7EB8020A94102D2761E801859419B
:1014F000C90241EA50514EEA060EB1FBF3F603FB76
:101500001611A2FB0675D7EBC020A94102D2761EA8
:1015100080185941C90241EA5051B1FBF3F703FB6E
:101520001711A2FB0735D3EBC020A94167F10007D3
:101530000CBF004247F0010766F3D5274FEA1E3182
:10154000B80814F5806412DDBD0775F1004250EB58
:101550000E5051EB045111F5801F5CBF41EA0C01A4
:10156000F0BD4CF07F6141F0E0410020F0BDBD07CF
:101570006D0840EA0E5041F48011D4F10104B4F139
:1015800020060ADAC4F120060200E04001FA06F360
:10159000E1401843B24015430EE0342C13DCC6F191
:1015A000200445EA40056D0820FA06F2154321FAA9
:1015B00006F0A1400D43002175F1004250F10000FA
:1015C00051EB0C01F0BD00205FEA0C01F0BDCFB97A
:1015D00092185B41B3FA83F704BFB2FA82F6BF19DF
:1015E0000B3FB7F120062FBF02FA06F3BB40C7F14D
:1015F000200622FA06F638BF3343BA401CB1E4197C
:10160000641E33E77F4231F00041B1FA81F404BF38
:10161000B0FA80F6A4190B3CB4F120062FBF00FAF3
:1016200006F1A140C4F1200620FA06F638BF314386
:10163000A0403C1B1AE7AC421ABF05EA1357AF4261
:1016400012E050EA41061CBF52EA4306BFE750EAE7
:101650004107304661461CBF41EA0551F0BD52EAE0
:10166000430C08BFC143F0BD00204FF4001616EB39
:10167000410F98BF16EB430F08BF16EB410F24BF75
:10168000C14305E016EB430F0CBF61464CEA055120
:10169000F0BD0000F446400D40EAC120490006D2EA
:1016A00000F014F8004248BF6FF00040604700F0BF
:1016B0000DF84FF0004188428CBF08464042604719
:1016C000400D40EAC120490080F00D8040F000400C
:1016D000490DA1F58061491C05D4D1F11F0154BF0A
:1016E000C840C01770474FF000007047010000BFAE
:1016F00009D0B0FA80F18840C91CC1F584610905A0
:1017000001EBD0214005704770B44FF0004591EADD
:10171000030F44BF6B4000F001B900BF841A71EBA6
:10172000030604D26E40001BB141121973414FF4FD
:10173000001C1CEB410F34BF7CEB430684E00C0D16
:10174000A4EB1356362E7DDC012E43DC45EAC32381
:1017500043EA525312BFD20292025B08240545EAC3
:10176000C12141EA5051D2EBC020994125D407D183
:10177000B0FA80F610FA06F164D00020203608E0B6
:10178000B1FA81F6B140C6F1200220FA02F211430B
:10179000B0404FEAF474B4EB465434F001064FEA1B
:1017A00074040AD8D6F50016760D04F00044F04013
:1017B00061FA06F25040F1404840C00A40EA415008
:1017C00021F0004128BF5FEA500550F1000044EBD2
:1017D000D12137E045EAC323DB0A45EAC121C90A22
:1017E000B6F120050EDD42EA0242120CC5F12006D8
:1017F00003FA06F6EB4042EA06056D42984161F1B4
:1018000000010DE062FA06F5F240554063FA06FC6D
:1018100082EA0C02F3405A406D42904161EB0301B1
:1018200011F4801F05D1641E620502D06D00404195
:10183000494121F48011430875F1004350F1000043
:1018400041EB045170BC70471CEB410F15D223F0E3
:10185000004352EA43060BD04FEA4C0CBCEB410F5D
:1018600004D80C0D661E342EB7DDEBE7801A9941C3
:1018700050EA410608BF0021E4E708BF1CEB430F14
:1018800028BF6FF00001DDE780B5134800F0B0F825
:101890000FF24801016041608160C16001614161F6
:1018A00081610FF23C0242628162C1620163416365
:1018B0000FF2300282630FF23402C26301644164AA
:1018C00001BD10B5044800F093F80446206808B93B
:1018D000FFF7DAFF204610BD100FFF1F00000000C9
:1018E0002E00000066616C736500000074727565FF
:1018F0000000000091FBF2F303FB1211C0E900317C
:10190000704700007047000070B44FF0004591EA46
:10191000030C44BF6B40FFF701BF00BF841A71EB9B
:10192000030603D2001BB141121973414FF4001C8E
:101930001CEB410F34BF7CEB430443E00C0DA4EBE4
:101940001356352E50DC45EAC323DB0A45EAC12194
:10195000C912B6F120050DDD63FA05F6EB4086EA03
:101960000305124218BF45F00105C01851F10001EE
:101970000CD213E062FA06F5F2405540F3415A40AA
:10198000B340F3405A408018594107D349085FEAF1
:1019900030005FEA350528BF45F0010501F58011EB
:1019A000420875F1004250F1000041EB045170BC57
:1019B0004FF4001C1CEB410F38BF70470020090D8D
:1019C000090570471CEB410F10D252EA43060BD0B9
:1019D000BCEB410F05D80C0DAB43661E342EB5DDB4
:1019E00002E0AB438018594170BC704770BC70472F
:1019F00070470000067873051E6200000000D040AA
:101A0000CDCCCC3D0100000000B0034000B00B4045
:101A100000000000000000000000000000000000C6
:101A200000000000000000000000000000004E6FF9
:101A30006E4D61736B61626C6500000000486172FD
:101A4000644661756C740000000000004D656D4DCA
:101A5000616E6167656D656E740000427573466105
:101A6000756C7400000000000000557361676546E6
:101A700061756C74000000000000000000000000B0
:101A80000000000000000000000000000000000056
:101A90000000000000000000000000000000000046
:101AA0000000000000000000000000000000000036
:101AB0000000000000535643616C6C000000000001
:101AC0000000000044656275674D6F6E69746F7247
:101AD0000000000000000000000000000000000006
:101AE000000050656E6453560000000000000000C6
:101AF000005379735469636B00000000000000001C
:101B0000444D41300000000000000000000000448F
:101B10004D41310000000000000000000000444D75
:101B200041320000000000000000000000444D4170
:101B3000330000000000000000000000444D41346C
:101B40000000000000000000000000444D4135008E
:101B500000000000000000000000444D413600007D
:101B6000000000000000000000444D41370000006C
:101B70000000000000000000444D4138000000005B
:101B800000000000000000444D413900000000004A
:101B9000000000000000444D413130000000000012
:101BA0000000000000444D41313100000000000001
:101BB00000000000444D41313200000000000000F0
:101BC000000000444D4131330000000000000000DF
:101BD0000000444D413134000000000000000000CE
:101BE00000444D41313500000000000000000000BD
:101BF000444D415F4572726F720000000000004D5D
:101C0000434D0000000000000000000000004654AA
:101C1000464C00000000000000000000005265611A
:101C2000645F436F6C6C6973696F6E004C56445F00
:101C30004C565700000000000000004C4C570000BC
:101C40000000000000000000000057617463686439
:101C50006F6700000000000000524E4700000000C7
:101C60000000000000000000493243300000000086
:101C70000000000000000049324331000000000075
:101C80000000000000005350493000000000000038
:101C90000000000000535049310000000000000027
:101CA0000000000053504932000000000000000016
:101CB00000000043414E305F4F525F4D425F6275FE
:101CC000660043414E305F4275735F4F66660000A9
:101CD0000043414E305F4572726F72000000000099
:101CE00043414E305F54785F5761726E696E67434F
:101CF000414E305F52785F5761726E696E67434143
:101D00004E305F57616B655F557000000052657320
:101D100065727665643531000000000052657365B8
:101D2000727665643532000000000043414E315F39
:101D30004F525F4D425F6275660043414E315F42D4
:101D400075735F4F666600000043414E315F457218
:101D5000726F72000000000043414E315F54785FA3
:101D60005761726E696E6743414E315F52785F57BB
:101D700061726E696E6743414E315F57616B655F9B
:101D800055700000005265736572766564353900E0
:101D9000000000005265736572766564363000009D
:101DA00000000055415254305F52585F54580000B3
:101DB000000055415254305F45525200000000006F
:101DC0000055415254315F52585F54580000000092
:101DD00055415254315F45525200000000000055F9
:101DE000415254325F52585F545800000000554130
:101DF0005254325F455252000000000000554152DB
:101E000054335F52585F54580000000055415254FB
:101E1000335F4552520000000000005541525434D7
:101E20005F52585F54580000000055415254345FCF
:101E300045525200000000000055415254355F5297
:101E4000585F54580000000055415254355F4552C8
:101E50005200000000000041444330000000000038
:101E60000000000000004144433100000000000079
:101E70000000000000434D50300000000000000052
:101E800000000000434D5031000000000000000041
:101E9000000000434D503200000000000000000030
:101EA000000046544D30000000000000000000001B
:101EB0000046544D3100000000000000000000000A
:101EC00046544D32000000000000000000000043B6
:101ED0004D540000000000000000000000005254BB
:101EE0004300000000000000000000000052657385
:101EF0006572766564383300000000005049543044
:101F000000000000000000000000005049543100B3
:101F100000000000000000000000504954320000A2
:101F20000000000000000000005049543300000091
:101F3000000000000000000050444230000000009B
:101F40000000000000000055534230000000000077
:101F500000000000000055534244434400000000CC
:101F60000000000000454E45545F313538385F545D
:101F7000696D6572454E45545F5472616E736D694B
:101F8000740000454E45545F52656365697665008F
:101F90000000454E45545F4572726F7200000000AC
:101FA0000049325330000000000000000000000033
:101FB00053444843000000000000000000000044BB
:101FC00041433000000000000000000000004441D8
:101FD000433100000000000000000000005453499D
:101FE0003000000000000000000000004D434700EA
:101FF00000000000000000000000004C5054696D1B
:102000006572000000000000000052657365727682
:10201000656431303200000000504F5254410000DE
:102020000000000000000000504F52544200000029
:1020300000000000000000504F5254430000000018
:10204000000000000000504F525444000000000007
:102050000000000000504F525445000000000000F6
:102060000000000052657365727665643130380097
:102070000000005265736572766564313039000086
:10208000000052657365727665643131300000007E
:10209000005265736572766564313131000000006D
:1020A000526573657276656431313200000000520A
:1020B00065736572766564313133000000005265E6
:1020C00073657276656431313400000000526573C7
:1020D00065727665643131350000000052657365C4
:1020E00072766564313136000000005265736572A6
:1020F0007665643131370000000052657365727691
:102100006564313138000000005265736572766590
:10211000643131390000000000800340009003402A
:1021200000800B4000F00F4040F00F4080F00F4067
:10213000C0F00F4000F10F40F0000A1D3000180001
:1021400032001801600018186400181A6E00181F79
:10215000780013187D00131A8200131C8C000E12D5
:1021600096000E15A0000E18AA000E1BB4000E1E3D
:10217000C8000C1CE1000B1EFA000A1F0001090830
:102180000090044000A0044000B0044000C004409F
:1021900000D0044000A0064000B0064000C0064049
:1021A00000D0064000A00E4000B00E400000A0414C
:1021B0000000803F6A6E6B6C676D4E4F343536376A
:1021C00002040101AC0EFF1FFC0EFF1FAC0EFF1F2F
:1021D000AC0EFF1FAC0EFF1F190CFF1F000CFF1FE2
:1021E00000000000000000000000000000000000EF
:1021F00000000000000000000000000000000000DF
:102200000000000008210122DFF87C331A6000BFC3
:102210000022DFF878331A6000BF0A00511ED2B2E4
:10222000002A15D0020604D50122DFF864331A60B3
:1022300003E00022DFF858331A600122DFF84C3344
:102240001A6000BF0022DFF844331A604000E4E760
:102250007047000008210022DFF82C331A600022AA
:10226000DFF828331A600A00511ED2B2002A15D0B6
:10227000020604D50122DFF818331A6003E00022B9
:10228000DFF80C331A600122DFF800331A6000BF58
:102290000022DFF8F8321A604000E4E7704738B5F2
:1022A00004000D00B5F15000C0B2FFF7D3FFE4B257
:1022B000200950F01000C0B2FFF7CCFF14F00F005F
:1022C000FFF7C8FF31BD70B5040000200500EDB276
:1022D000082D17DAB5F15000C0B2FFF7BBFF01209F
:1022E000FFF7B8FF1020FFF7B5FF00200600F6B299
:1022F000802E05DA2000C0B2FFF784FF761CF6E7D7
:102300006D1CE4E770BD002808D043F2264211009E
:102310000A00511E002AFBD1401EF4E7704780B529
:1023200000220121532000F05DFB002201215220F8
:1023300000F058FB01220121512000F053FB002244
:102340000121502000F04EFB0020DFF884160860C9
:102350003220FFF7D8FF0120DFF874160860AE20A6
:10236000FFF778FF0020FFF775FF1020FFF772FFDF
:102370004020FFF76FFF8120FFF76CFFCF20FFF7B2
:1023800069FFA120FFF766FFC820FFF763FFA620C3
:10239000FFF760FFA820FFF75DFF3F20FFF75AFF20
:1023A000D320FFF757FF0020FFF754FFD520FFF79A
:1023B00051FF8020FFF74EFFD920FFF74BFFF120A0
:1023C000FFF748FFDA20FFF745FF1220FFF742FF33
:1023D000DB20FFF73FFF4020FFF73CFF2020FFF707
:1023E00039FF0220FFF736FF8D20FFF733FF14205F
:1023F000FFF730FFA420FFF72DFFA620FFF72AFFED
:10240000AF20FFF727FF0020FFF75DFF002100202E
:10241000FFF745FF01BD70B504000D000120EDB2CE
:10242000082195FBF1F202FB115290400600EDB23B
:10243000E8085038C0B2FFF70DFFE4B2200950F0B1
:102440001000C0B2FFF706FF14F00F00FFF702FF05
:102450003000C0B2FFF7D6FE70BD2DE9F84304008E
:102460000D00160000275FF000085FF000095FFA1A
:1024700089F919F8060000282BD05FFA89F919F8B4
:10248000060020380700E4B27F2C02DB00200400A5
:102490006D1C2900C9B22000C0B2FFF700FF002068
:1024A00080465FFA88F8B8F1060F0EDADFF82405E7
:1024B000FFB2062101FB07005FFA88F818F8000058
:1024C000FFF7A0FE18F10108EBE7A41D19F10109BF
:1024D000CDE7BDE8F1832DE9F04104008846150001
:1024E00000260027B5F120000600E4B27B2C03DBB8
:1024F0000020040018F101084146C9B22000C0B212
:10250000FFF7CDFE00200700FFB2062F0BDADFF841
:10251000C404F6B2062101FB0600FFB2385CFFF7E7
:1025200071FE7F1CF0E7BDE8F08110B5A0B000207F
:10253000FFF7C9FE00200400E4B2802C14DADFF8B3
:102540009804E4B2205C022190FBF1F000A9E4B20F
:10255000605400A8E4B2205C3F2803DB3F2000A9C0
:10256000E4B26054641CE7E700200400E4B2802C6D
:1025700008DA00A8E4B2215C2000C0B2FFF74BFFEC
:10258000641CF3E720B010BD4C10FE434010FE4326
:102590004410FE432DE9F84F04000D0016001F0003
:1025A0002E222900C9B22000C0B2FFF794FF4FF4D9
:1025B0007A70B6FBF0F080464FF47A70B6FBF0F11B
:1025C00000FB11606421B0FBF1F081466420B6FB92
:1025D000F0F100FB11600A21B0FBF1F082460A2005
:1025E000B6FBF0F100FB11608346FFB2012F06D06D
:1025F00068D3032F21D00CD3042F3CD062E01BF111
:102600003002D2B22900C9B2A01DC0B2FFF763FFE9
:1026100058E01AF13002D2B22900C9B2A01DC0B2EE
:10262000FFF759FF1BF13002D2B22900C9B214F1F1
:102630000C00C0B2FFF74FFF44E019F13002D2B2F4
:102640002900C9B2A01DC0B2FFF745FF1AF1300240
:10265000D2B22900C9B214F10C00C0B2FFF73BFF9F
:102660001BF13002D2B22900C9B214F11200C0B27B
:10267000FFF731FF26E018F13002D2B22900C9B2CB
:10268000A01DC0B2FFF727FF19F13002D2B2290016
:10269000C9B214F10C00C0B2FFF71DFF1AF13002ED
:1026A000D2B22900C9B214F11200C0B2FFF713FF71
:1026B0001BF13002D2B22900C9B214F11800C0B225
:1026C000FFF709FFBDE8F18F2DE9F04F83B004005B
:1026D0008B4615001E0006275FF00008280000F05A
:1026E00015FA8146280000F011FA00F031FA0100D5
:1026F000280000F047FAB94900F0B8FA00F006FAED
:1027000082462800B64900F01DFB07D22D2259460B
:10271000C9B22000C0B2FFF7DEFE06E02B22594608
:10272000C9B22000C0B2FFF7D6FEB9F1000F01D543
:10273000D9F10009C84642F21070B8FBF0F08DF8EC
:10274000040042F21070B8FBF0F100FB11804FF46E
:102750007A71B0FBF1F08DF803004FF47A70B8FB9A
:10276000F0F100FB11806421B0FBF1F08DF8020064
:102770006420B8FBF0F100FB11800A21B0FBF1F0FE
:102780008DF801000A20B8FBF0F100FB11808DF8F4
:1027900000009DF8040000283BD09DF8040010F1D3
:1027A0003002D2B25946C9B2A01DC0B2FFF793FEA3
:1027B0009DF8030010F13002D2B25946C9B214F1AB
:1027C0000C00C0B2FFF787FE9DF8020010F1300246
:1027D000D2B25946C9B214F11200C0B2FFF77BFE63
:1027E0009DF8010010F13002D2B25946C9B214F17D
:1027F0001800C0B2FFF76FFE9DF8000010F1300224
:10280000D2B25946C9B214F11E00C0B2FFF763FE3E
:102810008AE09DF80300002831D0052007009DF8CC
:10282000030010F13002D2B25946C9B2A01DC0B2A5
:10283000FFF751FE9DF8020010F13002D2B2594666
:10284000C9B214F10C00C0B2FFF745FE9DF80100BB
:1028500010F13002D2B25946C9B214F11200C0B21E
:10286000FFF739FE9DF8000010F13002D2B2594650
:10287000C9B214F11800C0B2FFF72DFE54E09DF864
:102880000200002825D0042007009DF8020010F166
:102890003002D2B25946C9B2A01DC0B2FFF71BFE2A
:1028A0009DF8010010F13002D2B25946C9B214F1BC
:1028B0000C00C0B2FFF70FFE9DF8000010F13002CF
:1028C000D2B25946C9B214F11200C0B2FFF703FEEA
:1028D0002AE09DF80100002819D0032007009DF888
:1028E000010010F13002D2B25946C9B2A01DC0B2E7
:1028F000FFF7F1FD9DF8000010F13002D2B2594609
:10290000C9B214F10C00C0B2FFF7E5FD0CE00220E3
:1029100007009DF8000010F13002D2B25946C9B24A
:10292000A01DC0B2FFF7D7FDBAF1000F01D5DAF153
:10293000000AF6B2002E06D0022E17D004D3042EC1
:1029400036D024D342E041E03300DBB24FF47A705A
:102950009AFBF0F25946C9B2FFB2062000FB07F01D
:1029600050FA84F0C0B2FFF715FE2FE03300DBB25F
:1029700064209AFBF0F25946C9B2FFB2062000FB70
:1029800007F050FA84F0C0B2FFF704FE1EE03300F7
:10299000DBB20A209AFBF0F25946C9B2FFB2062018
:1029A00000FB07F050FA84F0C0B2FFF7F3FD0DE032
:1029B0003300DBB252465946C9B2FFB2062000FBD3
:1029C00007F050FA84F0C0B2FFF7E4FDBDE8F78FDE
:1029D0004810FE4364510000E40DFF1F00401C46F8
:1029E00095BFD63370B504000D0016004FF480710A
:1029F0002000C0B200F0B8F96DB2002D11D14148ED
:102A0000E4B2611150F821003E49E4B2621151F87C
:102A100022104969012214F01F039A409143416139
:102A200036E03848E4B2611150F821003549E4B28B
:102A3000621151F822104969012214F01F039A40D3
:102A400011434161F6B2002E11D12E48E4B261115A
:102A500050F821000068012114F01F0291408843C2
:102A60002849E4B2621151F82210086010E02548AC
:102A7000E4B2611150F821000068012114F01F0236
:102A8000914008431F49E4B2621151F822100860D6
:102A900070BD10B504001B48E4B2611150F821006C
:102AA000406914F01F01C840C00703D47B211648B9
:102AB00000F0C7F91348E4B2611150F82100012178
:102AC00014F01F029140C16010BD10B504000D4804
:102AD000E4B2611150F82100406914F01F01C840B0
:102AE000C00703D58C21084800F0ABF90548E4B2D3
:102AF000611150F82100006914F01F01C84010F066
:102B0000010010BD400BFF1F605900004100090E7D
:102B10007F3915D4D1F11F0114D4400007D2C00170
:102B200040F00040C84048BF6FF000407047C0010F
:102B300040F00040C8404CBF4FF00040404270475A
:102B40000020704700424FF0004058BFC04370471C
:102B5000002840F10980F446404200F005F850F0AA
:102B600000406047002800BF0AD0B0FA80F18840DA
:102B7000D1F19D01C905020672F1004241EB10201E
:102B80007047000090EA010F44BF81F0004100F05F
:102B9000F3B900BF431A4FF000423EBF5340C01A82
:102BA000C91800BFD3095FEAD05C13EB400F34BFF4
:102BB000B3EB410F40E07CEBD1530CD342EA01214F
:102BC00022D8D1EB402009D3400A28BF5FEA500148
:102BD00040EBCC507047401A15D04002B0FA80F25A
:102BE000521C9040400A4FEA3C23B3EB026384BF7F
:102BF00000EB730007E040F400001A16DB07C2F197
:102C00000102D04018437047182BFCDC31FA03F264
:102C100002FA03F3591A38BF42F00102D2EB402006
:102C20003CBF4000ACF1010C5FEACC5CC20572F124
:102C300000414CEB5020704713EB400F0FD24B007C
:102C400009D0ACEBD153022B03DB4902172BDDDD9E
:102C500070479143401A4300D5D10020704713EBD1
:102C6000410FD0D36FF0000070470000FF2212EA3E
:102C7000D05C1DBF12EAD153944593422BE09C4493
:102C8000D30780EA01021A4043EA002043EA012107
:102C9000A1FB0030410038BF40007CF17F010BDB1D
:102CA000FE294ADA5B0842EAC15153EA006373F134
:102CB000004C51EB10207047D1F1080CDCF12001E1
:102CC0002FDB5B0810FA01F10B4373F1004120FA8E
:102CD0000CF05041704794451CBF02EAD153934217
:102CE00080EA010202F000421DD0400019D04900E4
:102CF00017D05BB9634514D00902B1FA81F399404A
:102D0000BCEB030CC00140F00040C1E70002B0FA88
:102D100080FC10FA0CF0B3EB0C0CC90141F000413F
:102D2000B6E71000704740000AD0490008D010F103
:102D3000807F94BF11F1807F02E042F0FF40704736
:102D4000D04370474FF0807C1CEB400F94BF1CEBCE
:102D5000410F05E040EA010C5FEA4C0C01D28842C9
:102D6000704718BF8142704710B4294A12684FF467
:102D70000073C0B24409A3401A43254B1A60254A88
:102D8000C0B2431152F82320012310F01F04A340C6
:102D9000C2F8A0301F4AC0B2431152F82320C0B27B
:102DA00010F01F0342F8231010BC704710B4184AEB
:102DB00012684FF40073C0B24409A3401A43144B85
:102DC0001A60144AC0B2431152F82320012310F0B4
:102DD0001F04A340C2F8A03031F4E0610D4AC0B234
:102DE000431152F82320C0B210F01F0352F82320E1
:102DF00012F4E0621143074AC0B2431152F8232093
:102E0000C0B210F01F0342F8231010BC704700003E
:102E1000388004409C0BFF1FDFF800F04D0CFF1FB3
:102E2000DFF800F07D0CFF1FBFF34F8F46480068AE
:102E300010F4E0604549084343490860BFF34F8FF1
:102E4000FEE738B504000D00002000F0CFF82A009E
:102E500021003F4800F002F9002000F0E4F84FF4B0
:102E60007A7000F028F9F2E738B504000D0021006F
:102E700049B2032000F042FA200032BD10B5002410
:102E8000042000F055FA042000F088FA002841D10F
:102E9000002000F0ABF8042000F080FA012801D1F6
:102EA00001200400002000F0BEF82A4800F0D6F807
:102EB0004FF4FA7000F0FFF8E4B2012CEBD10420DB
:102EC00000F06CFA0028E6D1042000F067FA002830
:102ED00006D1002000F0A7F8642000F0ECF8F3E73A
:102EE000042000F05BFA012806D1002000F09BF8D6
:102EF000322000F0E0F8F3E7174800F0AFF8FFF7F2
:102F00008BFF642000F0D7F80020FFF789FFFFF760
:102F10008BFFC0E710BD10B510480468012000F019
:102F200065F8012000F07FF80D48E4B20F2101FBA5
:102F30000402E4B221000B4800F090F84FF47A70DC
:102F400000F0B9F8EDE700000CED00E00400FA0530
:102F50003C5C0000F05C0000705C000004ED00E0F0
:102F60002C04FF1FD85B000090EA010F44BF81F0E2
:102F70000041FFF70FBE00BF421A3CBF801A8918FC
:102F80004FF0004CC0F3C752FF2A24D0C1F3C753FF
:102F900013B3D21AD2F1190327DD4CEA01214CFAFE
:102FA00003F321EA0303D140C20D4CEA002040188C
:102FB00034BF20EA0C004CEA5000D20553EA00630B
:102FC00073EB0C0C52EB1020420012F1807F38BFE3
:102FD0007047C00DC0057047490212BF9A4200EB0E
:102FE0005120F8E7D2F11703D9D5704710B5040086
:102FF00064B2042C07DA01220121174864B2205C74
:10300000FFF7F0FC0EE0042004002000441E40B254
:10301000002807D0012201210F4864B2205CFFF78D
:10302000E1FCF2E710BD10B5040064B2042C05DA2F
:10303000094864B2205CFFF72CFD0CE0042004007A
:103040002000441E40B2002805D0034864B2205C32
:10305000FFF71FFDF4E710BDD80BFF1F0EB400B53E
:1030600082B003A90091024600AB012103487844D5
:103070000A30FDF7D1F906BC5DF810FB512C0000B9
:1030800010B50400002C15D0B4F1807F03D32921A2
:103090000F48FFF7D6FE00200E4908600E48046076
:1030A00000200E49086005200A49086009480068A8
:1030B000C003FBD510BD10B504002000441E00283D
:1030C00004D007480068FFF7DBFFF6E710BD0000FB
:1030D0004C57000010E000E014E000E018E000E0D1
:1030E000A00EFF1F2DE9F84304000D0064B2002C70
:1030F00008D0022C2CD018D3042C4FD03BD3052C55
:103100005FD071E0DFF81002006850F48060DFF8F3
:10311000081208604FF440716620FFF725FE4FF457
:1031200040716720FFF720FE5EE0DFF8EC010068E9
:1031300050F40060DFF8E01108604FF44071432064
:10314000FFF712FE4FF440714420FFF70DFE4BE0F5
:10315000DFF8C401006850F48050DFF8BC1108604B
:103160004FF440716320FFF7FFFD4FF44071622080
:10317000FFF7FAFD38E0DFF8A001006850F40050D6
:10318000DFF8941108604FF440718520FFF7ECFDE3
:103190004FF440718420FFF7E7FD25E0DFF87C0164
:1031A000006850F48060DFF8741108604FF44071DB
:1031B0004E20FFF7D9FD4FF440714F20FFF7D4FDAB
:1031C00012E0DFF85801006850F40060DFF84C119D
:1031D00008604FF440718920FFF7C6FD4FF440713D
:1031E0008820FFF7C1FDFFE7DFF8340164B250F833
:1031F0002400C07810F0F300DFF8241164B251F815
:103200002410C870DFF8180164B250F824008078E8
:10321000DFF80C1164B251F82410887064B2002CED
:1032200002D064B2012C07D1DFF8F80000684FF437
:103230007A714843814606E0DFF8EC0000684FF4FD
:103240007A71484381462801B9FBF0F00600B6B216
:10325000B6F5005F02DB41F6FF700600B9FBF5F042
:10326000B6B2B0EB06100700BFB2202F03DBDC21A3
:103270002E48FFF7E6FD2A4864B250F82400007893
:1032800010F0E0008046B6B2300A10F01F0050EA9D
:103290000800234964B251F824100870204864B231
:1032A00050F8240046701E4864B250F82400807A1A
:1032B00010F0E000804617F01F0050EA080018499F
:1032C00064B251F824108872154864B250F8240092
:1032D000007C50F08800124964B251F82410087440
:1032E0000F4864B250F82400C07850F00C000C492C
:1032F00064B251F82410C870BDE8F183084A40B2A6
:1033000052F8202012791206F8D5054A40B252F838
:103310002020D17170470000348004402880044090
:10332000B00BFF1FA00EFF1FA80EFF1F685A000062
:1033300010B5040064B2082C0DDA002200212248E6
:1033400064B2205CFFF74EFB03211F4864B2205C8F
:10335000FFF72CFD14E0082004002000441E40B2BA
:1033600000280DD000220021174864B2205CFFF72E
:1033700039FB0321144864B2205CFFF717FDECE72A
:1033800010BD10B50400104864B2205CFFF79DFB2F
:10339000002801D1002000E0012010BD10B504007C
:1033A000200040B2FFF7EDFF00280AD10A20FFF706
:1033B00082FE200040B2FFF7E4FF002801D1002088
:1033C00000E0012010BD0000D00BFF1F10B500224F
:1033D00001218A20FFF706FB002201218C20FFF744
:1033E00001FB112000F06AFB002200214E20FFF7B4
:1033F000F9FA002200214C20FFF7F4FA0022002104
:103400004A20FFF7EFFA002200214820FFF7EAFAEE
:10341000002200212120FFF7E5FA002200212320CD
:10342000FFF7E0FA002200212520FFF7DBFA002257
:1034300000212720FFF7D6FA002200212920FFF7DC
:10344000D1FADFF810060168002000F093FCFEF7C7
:1034500066FF4FF4AF6364220021012000F054FDA9
:10346000002342F210720421002000F04DFD0023E1
:1034700042F210720521002000F046FD002342F2C6
:1034800010720621002000F03FFD002342F210726E
:103490000721002000F038FD00200400E4B2802C59
:1034A00006DA0020DFF8B015E4B26054641CF5E7DA
:1034B0004C20FFF70AFB002828D14FF47A6342F230
:1034C00010720421002000F01FFD002342F2107250
:1034D0000521002000F018FD4FF47A6342F21072CB
:1034E0000621002000F010FD002342F21072072197
:1034F000002000F009FDDFF86405DFF864150860BE
:10350000DFF86005DFF8601508606DE04A20FFF71E
:10351000DCFA002828D140F6B83342F210720421B8
:10352000002000F0F1FC002342F21072052100207F
:1035300000F0EAFC40F6B83342F210720621002097
:1035400000F0E2FC002342F210720721002000F09C
:10355000DBFCDFF81805DFF808150860DFF8100558
:10356000DFF8041508603FE04820FFF7AEFA0028B6
:103570001ED14FF4FA6342F210720421002000F0D1
:10358000C3FC002342F210720521002000F0BCFCB5
:103590004FF4FA6342F210720621002000F0B4FCEE
:1035A000002342F210720721002000F0ADFC1BE066
:1035B000002342F210720421002000F0A5FC002339
:1035C00042F210720521002000F09EFC002342F21E
:1035D00010720621002000F097FC002342F21072C6
:1035E0000721002000F090FC10BD10B5DFF8842406
:1035F00000210020FEF731FF40A200212520FEF728
:103600002CFF0123DFF85804026800213620FFF761
:103610005BF83BA201212520FEF71FFF0123DFF805
:103620004804026801213620FFF74EF8DFF84824ED
:1036300002210020FEF711FF30A202212520FEF713
:103640000CFF0123DFF83404026802213620FFF763
:103650003BF82CA203212520FEF7FFFE0123DFF813
:103660002004026803213620FFF72EF824A204214B
:103670002520FEF7F2FE0123DFF80804026804218A
:103680003620FFF721F8DFF8002405210020FEF79F
:10369000E4FE01231C00DFF8F403B0F90000FFF79B
:1036A00057FA0200230005211920FFF70DF8DFF873
:1036B000E02305213720FEF7D0FE01231C00DFF8B0
:1036C000D4030078FFF74EFA0200230005215A20A8
:1036D000FEF7FAFFDFF8C02306210020FEF7BDFE4B
:1036E00001231C00DFF8B4030088FFF73BFA020057
:1036F000230006214620FEF7E7FF10BD503D0000E5
:10370000443D0000493D000080B52720FFF7DDF96A
:10371000002813D1DFF888030078012804D10020A5
:10372000DFF87C13087006E00020FEF7CCFD0120D6
:10373000DFF86C130870C820FFF7BDFCDFF86003EA
:103740000078002802D0012803D004E0FEF7EDFE47
:1037500001E0FFF74AFF2120FFF7B7F9002840F00A
:103760009C80DFF840030078002806D0022838D07B
:103770001DD3042869D04ED380E0B4A20021642078
:10378000FEF76BFEB2A201216420FEF766FEB0A236
:1037900002216420FEF761FEADA203216420FEF742
:1037A0005CFEABA204216420FEF757FE66E0A8A2EF
:1037B00000216420FEF751FEA4A201216420FEF73F
:1037C0004CFEA3A202216420FEF747FEA0A2032123
:1037D0006420FEF742FE9EA204216420FEF73DFE17
:1037E0004CE09BA200216420FEF737FE98A2012145
:1037F0006420FEF732FE95A202216420FEF72DFE22
:1038000093A203216420FEF728FE91A204216420E4
:10381000FEF723FE32E08EA200216420FEF71DFE9B
:103820008BA201216420FEF718FE89A202216420E8
:10383000FEF713FE85A203216420FEF70EFE84A28C
:1038400004216420FEF709FE18E081A20021642013
:10385000FEF703FE7EA201216420FEF7FEFD7CA29E
:1038600002216420FEF7F9FD79A203216420FEF70E
:10387000F4FD76A204216420FEF7EFFD894800786C
:10388000401C8849087087480078052802DB002022
:1038900084490870C820FFF70EFC2320FFF715F9B4
:1038A00000284DD17F480078002806D002281ED07D
:1038B00010D3042835D027D33FE07248006800F0C9
:1038C0006DFC794A794BFEF71FF800F08FFC6D49CB
:1038D000086032E06248006800F060FC724A734B96
:1038E000FEF712F800F082FC5D49086025E05E48B2
:1038F000006800F053FC6C4A6C4BFEF705F800F0D2
:1039000075FC5949086018E05C48006800F046FC06
:10391000654A664BFDF7F8FF00F068FC5749086000
:103920000BE05748006800F039FC5F4A5F4BFDF739
:10393000EBFF00F05BFC52490860C820FFF7BBFBBF
:103940002520FFF7C2F800284DD1564800780028FE
:1039500006D002281ED010D3042835D027D33FE04C
:103960004848006800F01AFC4F4A514BFDF7CCFF65
:1039700000F03CFC4349086032E03948006800F040
:103980000DFC494A4A4BFDF7BFFF00F02FFC3449BC
:10399000086025E03448006800F000FC424A444BCF
:1039A000FDF7B2FF00F022FC2F49086018E0334811
:1039B000006800F0F3FB3C4A3D4BFDF7A5FF00F02B
:1039C00015FC2E4908600BE02D48006800F0E6FB6E
:1039D000354A374BFDF798FF00F008FC284908608E
:1039E000C820FFF768FB2920FFF76FF800282BD1CC
:1039F00028480078012804D017D303280FD007D314
:103A000013E0C8202B490880C8202B4908800CE00F
:103A1000FA2028490880FA202749088005E09620E6
:103A2000244908809620244908801A480078401CC0
:103A30001849087017480078042802DB012015494E
:103A40000870C820FFF737FB01BD00BF3C00000035
:103A500020000000A80EFF1FE40DFF1F0000E04043
:103A60001804FF1FCDCC4C3E1C04FF1F0000D040AB
:103A7000CDCCCC3D1C5D0000245D0000C80BFF1FB9
:103A8000CC0BFF1F9C0EFF1F2C5D0000FE0EFF1FC6
:103A9000345D00002004FF1F045D0000FC0EFF1FCA
:103AA0000E0FFF1F0D0FFF1F9A9999999999B93F12
:103AB0009999B9BF000FFF1F020FFF1F38B504000F
:103AC00064B26511EDB2002D02D0012D11D021E0BC
:103AD000A348006850F00060A1490860A148006850
:103AE00030F090009F4908609E4800689D4908603A
:103AF00014E09D48006850F000609B4908609948B8
:103B0000006830F41040974908609648006895496D
:103B1000086003E033219548FFF793F964B2200071
:103B2000002800F08980012800F08680032800F03A
:103B3000838008284ED0092851D00A2854D00B2859
:103B400057D00C285AD00D285DD00E2860D00F28F1
:103B500063D0102870D0112864D0122867D01328A1
:103B60006AD0142868D01A2866D01D2864D01E2870
:103B700062D0202861D021285FD023285DD024285E
:103B80005CD025285FD0262862D0272865D0282839
:103B900068D029286BD02A286ED02B2871D02C28E9
:103BA00074D02D2877D02E287AD02F287DD0302899
:103BB00000F0858031287DD0322800F080803328C5
:103BC0007DD034287BD03A2879D03D2877D03E2844
:103BD00075D075E000212020FFF7C6F874E00021C1
:103BE0002120FFF7C1F86FE000210720FFF7BCF8A4
:103BF0006AE000210820FFF7B7F865E000212220E5
:103C0000FFF7B2F860E000212320FFF7ADF85BE09A
:103C100000214020FFF7A8F856E000214120FFF7DF
:103C2000A3F851E000219820FFF79EF84CE0002116
:103C30009920FFF799F847E046E045E00021802011
:103C4000FFF792F840E000218120FFF78DF83BE07C
:103C500000218220FFF788F836E000218320FFF75B
:103C600083F831E000212020FFF77EF82CE00021CE
:103C70002120FFF779F827E000212420FFF774F8CE
:103C800022E000212520FFF76FF81DE0002126200B
:103C9000FFF76AF818E000212720FFF765F813E026
:103CA00000212A20FFF760F80EE000212B20FFF70B
:103CB0005BF809E000211120FFF756F804E003E06B
:103CC0009A212A48FFF7BDF831BDF8B504000D0070
:103CD00064B266110027290049B2200040B200F00A
:103CE0001CF8234876B250F8260000680006F8D584
:103CF0001F4876B250F82600006907001C4876B2CB
:103D000050F82600006830F08000194976B251F86A
:103D100026100860380080B2F2BD30B440B24211C3
:103D200010F01F0349B28C0014F00C0454F050043E
:103D30000F4D52B255F82250AC6004240C4D52B2D3
:103D400055F82250EC60DBB213F01F0454F040042D
:103D5000074D52B255F822502C6030BC704700001D
:103D60003C8004401880044030800440D457000058
:103D70002404FF1F38B504000D00002D03D12221BB
:103D80001748FFF75EF81748006850F4000015491F
:103D90000860002014490860681E144964B22201BA
:103DA0005050124864B210EB0410C06850F001008B
:103DB0000E4964B211EB0411C8600C4864B210EBF8
:103DC0000410806840084000084964B211EB0411F7
:103DD00088600320054964B211EB0411886031BD8D
:103DE000E45900003C80044000700340007103402F
:103DF00038B504000D0064B2002C03D0022C66D04C
:103E000049D380E0DFF87C03006850F08070DFF871
:103E1000741308606DB2002D0BD0022D15D00ED397
:103E2000042D1ED017D3062D27D020D3072D2AD03E
:103E30002FE04FF480614120FEF796FF2AE04FF417
:103E400040710420FEF790FF24E04FF440710520FC
:103E5000FEF78AFF1EE04FF440710620FEF784FF54
:103E600018E04FF480616420FEF77EFF12E04FF40B
:103E700080616520FEF778FF0CE04FF480616620DA
:103E8000FEF772FF06E04FF480616720FEF76CFFDB
:103E900000E038E037E0DFF8EC02006850F0007036
:103EA000DFF8E01208606DB2002D02D0012D06D0BF
:103EB0000BE04FF440710820FEF756FF06E04FF488
:103EC00040710920FEF750FF00E01CE01BE0DFF826
:103ED000B802006850F08070DFF8AC1208606DB274
:103EE000002D02D0012D06D00BE04FF440710A20C6
:103EF000FEF73AFF06E04FF440710B20FEF734FF67
:103F000000E000E0FFE731BD2DE9F84F04000D00AF
:103F100016001F0064B2002C0ED064B2012C02D037
:103F200064B2022C02D16DB2022D05DB40F2851184
:103F3000DFF85802FEF785FF290049B2200040B2A1
:103F4000FFF756FFDFF8480200684FF47A714843E4
:103F500080465FEA1840B0FBF6F0814600208246BA
:103F60001FFA89F959FA0AF0012802DB1AF1010A4D
:103F7000F6E75FFA8AFABAF1080F05DB4FF4D07161
:103F8000DFF80802FEF75DFF38FA0AF0B0FBF6F042
:103F900081461FFA89F9DFF8FC0164B240F82490E9
:103FA00064B2002C03D0022C19D00CD323E01FFAEA
:103FB00089F919F1010000FB07F042F21071B0FB22
:103FC000F1F0834617E01FFA89F919F1010000FBAF
:103FD00007F042F21071B0FBF1F083460BE01FFADC
:103FE00089F919F1010000FB07F042F21071B0FBF2
:103FF000F1F08346FFE7DFF8A00164B250F8240037
:104000006DB210EBC500DFF8901164B251F82410C6
:104010006DB211EBC501C96831F00401C160DFF870
:10402000780164B250F824006DB210EBC50028216D
:10403000C1605FFA8AFA1AF0070050F00800DFF852
:10404000581164B251F8241008601FFA89F9DFF89A
:10405000480164B250F82400C0F808900020DFF84E
:10406000381164B251F82410C864DFF82C0164B22E
:1040700050F824006DB210EBC5001FFA8BFBC0F89E
:1040800010B00020DFF8101164B251F8241048601D
:10409000BDE8F18F2DE9F04104000D0016005FF03E
:1040A000000864B2002C0ED064B2012C02D064B2BD
:1040B000022C02D16DB2022D05DB4FF4F371DFF853
:1040C000CC00FEF7BEFE64B2002C03D0022C17D049
:1040D0000BD320E042F21170864205D34FF4F67103
:1040E000DFF8A800FEF7ADFE15E042F2117086423F
:1040F00005D34FF4F871DFF89400FEF7A2FE0AE052
:1041000042F21170864205D34FF4FA71DFF87C0059
:10411000FEF797FEFFE7DFF87C0064B250F824005A
:10412000804664B2002C03D0022C15D00AD31DE0C7
:1041300018F1010000FB06F042F21071B0FBF1F043
:10414000070013E018F1010000FB06F042F21071C5
:10415000B0FBF1F0070009E018F1010000FB06F0E8
:1041600042F21071B0FBF1F00700FFE7DFF8280022
:1041700064B250F824006DB210EBC5000761BDE8D1
:10418000F08100003C80044030800440DC58000096
:10419000A80EFF1F900EFF1F340BFF1F5FF0FF0CD8
:1041A0001CEAD05114BF614506E0C110400721F060
:1041B000E04101F16051704779B900F0004100021F
:1041C0000AD0B0FA80FC00FA0CF001F16051A1EBCA
:1041D0000C5101EBD0214005704741020CBF40F467
:1041E000E0016FF000010020704700004FEAF17C11
:1041F000BCF1E04C2CBFBCF5001F11E05FEA4C0C99
:1042000034BFBCF17F5F2EE05FEA9C0C4FEA0C1CD0
:104210004FEA3C0CC10071F100414CEB507070470B
:10422000C90241EA5051C00218BF41F0010141F0FA
:1042300000414FEA6C50C0F10900212810D240EA39
:10424000CC7CCCF1200C11FA0CF070F10040CCF1D8
:10425000200C21FA0CF00CF0004C40EB0C007047E5
:104260004FEACC707047490011F5001F04D84FEA9F
:10427000CC10FF30C0057047C8177047DFF8A8158D
:104280000978DFF8A8251170DFF8A4150978DFF8A0
:10429000A4251170C821DFF890251170C821DFF81E
:1042A00090251170DFF890150988002904D0DFF8F7
:1042B00088150988FF2900D1ABE0DFF87C15098853
:1042C000DFF87825D27992B2914238D2DFF86815BA
:1042D0000988DFF8682592F8782092B291422ED2B0
:1042E00001210800792880F29480DFF850154118E8
:1042F0008979DFF84425128889B2914208D2DFF823
:1043000030150978C82903D1811DDFF824251170E3
:10431000DFF82815091A91F87910DFF81C251288A2
:1043200089B2914209D2DFF800150978C82904D171
:10433000D0F17901DFF8F0241170401CD2E7DFF8EA
:10434000F8140988DFF8F42492F8402092B29142E0
:104350002FD20121080033285BDADFF8D414097862
:10436000C8290FD1DFF8D0140988DFF8D0248218CB
:1043700092F8402092B2914204D310F14001DFF84C
:10438000B0241170DFF8A0140978C8290FD1DFF824
:10439000A8140988DFF8A424121A92F8402092B2D7
:1043A000914204D3D0F14001DFF87C241170401C0D
:1043B000D1E70121080033282BDADFF86C140978E3
:1043C000C8290FD1DFF870140988DFF8702482182B
:1043D00092F8402092B2914204D210F14001DFF8ED
:1043E00048241170DFF848140978C8290FD1DFF884
:1043F00048140988DFF84424121A92F8402092B237
:10440000914204D2D0F14001DFF824241170401C05
:10441000D1E77047DFF818040078C82832D1DFF8F8
:1044200008040078C8282DD0DFF808040078C828D0
:1044300004D1DFF8F8030078C82806D0DFF80004BC
:10444000B0F9000010F10F0F0ADADFF8F403B0F949
:10445000000010F10F0F03DAC820DFF8CC1308704A
:104460000020DFF8E0130870DFF8DC030078012893
:1044700004D0DFF8D8030078012803D1C820DFF882
:10448000A8130870DFF8A8030078C82830D0DFF838
:1044900098030078C8282BD1DFF898030078C82843
:1044A00004D1DFF888030078C82805D0DFF890032E
:1044B000B0F90000102809DBDFF88403B0F9000030
:1044C000102803DBC820DFF8681308700020DFF82D
:1044D0007C130870DFF870030078022804D0DFF83E
:1044E0006C030078012803D1C820DFF8441308705A
:1044F000DFF83C030078C82841D0DFF82C030078AF
:10450000C8283CD0DFF828030078DFF81C130978AE
:10451000884234D2DFF81C030078C8281ED0DFF8A8
:104520000C030078C82819D0DFF804030078DFF8FE
:10453000F81209780818802808DAC820DFF8F01285
:1045400008700120DFF8FC12087018E0C820B64996
:1045500008700120DFF8F412087010E0DFF8E002C4
:10456000B0F90000012802DBC820B1490870B44846
:10457000B0F90000002802D5C820AB490870AC484B
:104580000078C82820D1A8480078C8281CD1AA489B
:104590000088AF49097889B2884215D2A5480078C9
:1045A000C82806D0A1480078C82802D10120A64911
:1045B0000870A0480078C82806D19C480078C82810
:1045C00002D00220A049087099480078C82806D077
:1045D00095480078C82802D000209E49086070479E
:1045E000002093490978C82917D08F490978C8292C
:1045F00013D08F4909788C4A12785118022291FB06
:10460000F2F13F398E4A118000218F4A117000214A
:104610008E4A117000218B4A117085490978C8298A
:1046200011D081490978C8290DD1814909786239A9
:10463000834A11808249B1F90010002903D45FF048
:10464000FF317F4A11807A490978C82910D176490B
:104650000978C8290CD0744909781E39784A118024
:104660007749B1F90010012902DA0121744A118059
:104670006F490978C8292AD16B490978C82926D1F8
:10468000754909886E4A11806F49097800291ED141
:104690006B49B1F9001000290AD56949B1F9001038
:1046A00011F1310F04DB66490988491E644A118003
:1046B0006349B1F90010012909DB6149B1F9001022
:1046C000322904DA5E490988491C5D4A11800921B2
:1046D0000800012809DB604911EB400131F8021C98
:1046E0005D4A22F81010401EF3E7554909885A4ADE
:1046F0001180704710B55248B0F90000012803DB63
:104700004F48B0F9000003E04D48B0F900004042C6
:1047100005281DDB4A48B0F900004F49B1F90210E5
:10472000401A012807DB4648B0F900004A49B1F9B0
:104730000210401A06E04848B0F902004049B1F9B9
:104740000010401A032803DA434840883C49088097
:104750004248406841498860404800683F49486095
:104760003748B0F90000FEF7F3F93C4908603C48CF
:1047700001683A480068FEF779FA04003748006893
:1047800036494968FEF7FEF936490968FEF76EFAC0
:104790002100FEF7E9FBFEF7B9F900B2D0F5AF60F2
:1047A000FEF7D6F9304908602F4800682F4909689C
:1047B000FEF7E8F9002100F06DF806D22A480068FB
:1047C0002A490968FEF7DEF905E02848006826490D
:1047D0000968FEF7D7F92649FEF7B4FA03D2234851
:1047E00000682149086020480068224900F052F81A
:1047F00002D821481C4908601B4800681F49FEF781
:10480000A1FA02D21D48184908601748006800F054
:1048100053F8020000210120FFF73CFC1248006819
:104820001249086010BD00001404FF1F080FFF1F8D
:104830001504FF1F090FFF1FFC0EFF1FE40DFF1FD4
:10484000FE0EFF1F0C0FFF1F0A0FFF1F0B0FFF1F96
:10485000050FFF1F780EFF1F640EFF1F7C0EFF1F4A
:104860001804FF1F1C04FF1F8C0EFF1F880EFF1F64
:104870000000A0400160C2440060C2440040974470
:1048800080B5FFF7FBFCFFF7C5FDFFF7A9FEFFF7BB
:1048900031FF01BD4FF0807C1CEB400F94BF1CEB3F
:1048A000410F05E040EA010C5FEA4C0C01D2814265
:1048B000704718BF8842704740000DD2010E7F3903
:1048C0000AD4D1F11F0104D4C00140F00040C84017
:1048D00070477FF000007047002070470100481EBD
:1048E000002906D0002189B2B429F7DA00BF491C9B
:1048F000F9E7704710B50120DFF860140860012067
:10490000FFF7ECFF0120DFF8581408600120FFF7E3
:10491000E5FF0020DFF8441408600120FFF7DEFF08
:104920000020DFF83C14086000200400E4B27F2C73
:104930000FDA0120FFF7D2FF0120DFF8241408600E
:104940000120FFF7CBFF0020DFF814140860641C7F
:10495000ECE70120FFF7C2FF0120DFF80414086034
:104960000120FFF7BBFF0020DFF8F413086010BD43
:1049700070B5040000260120DFF8E0130860012074
:10498000FFF7ACFF0120DFF8D81308600120FFF724
:10499000A5FF0020DFF8C41308600120FFF79EFF89
:1049A00000200500EDB2802D16DA0120FFF796FFFA
:1049B0000120DFF8AC1308600120FFF78FFF002112
:1049C0001220FFF782F906002670641C0020DFF831
:1049D000901308606D1CE5E70120FFF77FFF0120C1
:1049E000DFF87C1308600120FFF778FF0020DFF874
:1049F0007013086070BD3FB400242200052A06DA57
:104A0000DFF86043145D02AD5455521CF6E70024F4
:104A100022007B2A41DA00242300052B05DA02ACB0
:104A20001C5D00AD5C555B1CF7E700242300052BE3
:104A30001BDA00242000D3F10404A04213DA00ACF6
:104A40000419647800AD455DAC420AD200AC045D47
:104A5000210000AC0419647800AD445500AC041981
:104A60006170401CE7E75B1CE1E79DF80240DFF85E
:104A7000F4525519AC7000242300042B06DA02AC62
:104A80001C19647802AD5C555B1CF6E7B54C141933
:104A900064798DF80C40521CBBE73FBC704710B4E2
:104AA000002300242200D2B2C0B2824205D20C7888
:104AB00053FA84F3491C521CF5E7C0B2B3FBF0F083
:104AC000C0B210BC70472DE9F04FADF2244D002765
:104AD0000020069000208DF810005FF000090020F3
:104AE000079000255FF000080026002400200590B4
:104AF0005FF0000BFF208DF8110000200700FF2F52
:104B000005DC002008A941F827007F1CF7E796483C
:104B10000078070095480078B84219DB9148385C66
:104B200082469DF811005FFA8AFA824501D28DF81B
:104B300011A008A85FFA8AFA50F82A00401C08A9B8
:104B40005FFA8AFA41F82A0058FA8AF87F1CE1E7EE
:104B500000200700FF2F42DC08A850F8270000289B
:104B60003BD008A850F82700041981480078E4B227
:104B7000844234D008A850F8270007FB00557C4831
:104B80000078001B0600B8EB05000790E4B2B5FB07
:104B9000F4F083460798F6B2B0FBF6F0059005985E
:104BA000B0EB0B000599B1EB0B014843E4B2604355
:104BB000F6B270436E4909786D4A1278514390FB02
:104BC000F1F006900698814507DA06988146694813
:104BD00080F8009038008DF810007F1CBAE70020A4
:104BE0000400002006006448007800280FD15E48C9
:104BF000007807005D480078B84219DB9DF8100086
:104C00005849795C884200D2761C7F1CF2E75648EE
:104C10000078070055480078B84209DB57480088FB
:104C20005049795C89B2884200D2761C7F1CF1E73A
:104C3000D6F1800004004046FCF758FDCDE90201A2
:104C4000E4B22000FCF752FD00224D4BFCF72CFB98
:104C5000CDE90001F6B23000FCF748FD0022494BD7
:104C6000FCF722FBDDE90023FCF74EFE02000B00FF
:104C7000DDE90201FCF7EAFBFCF70CFD3E49087098
:104C8000B9F10F0F0BDA40480078372803DAFF201C
:104C90003A49088034E000203849088030E09DF827
:104CA0001000FCF723FD0022354BFCF7FDFACDE99F
:104CB000000136480078FCF719FD0022304BFCF764
:104CC000F3FADDE90023FCF71FFE00222C4BFCF772
:104CD000EBFACDE9000129480088FCF707FD002226
:104CE000274BFCF7E1FADDE90023FCF70DFEFCF7AA
:104CF000D1FCC0B2214908801F48007823490870C0
:104D00000DF2244DBDE8F08F70B5B4250A26154983
:104D10008020FFF7C4FE1C4908701B480078281A41
:104D20000400F44204DA1A480078401E184908705A
:104D3000A64204DA16480078401C15490870144849
:104D40000078032802DA0220114908701048007820
:104D5000082802DB08200E49087070BD2820FE4399
:104D60003020FE43E40DFF1F1004FF1F1104FF1F3E
:104D70001204FF1F040FFF1F060FFF1FFC0EFF1F73
:104D80000000E03F0000F83F050FFF1F070FFF1F67
:104D90001304FF1FDFF800F0950DFF1FDFF8A813C5
:104DA00040B231F8201040B20128C0F2738140B205
:104DB000112880F26F810022DFF890331A7089B2D7
:104DC0005B2904DA0022DFF884335A7080E089B26C
:104DD000B52904DA0122DFF874335A7078E089B219
:104DE000B1F5877F04DC0222DFF860335A706FE090
:104DF00089B2B1F5B47F04DC0322DFF850335A7076
:104E000066E089B2B1F5E17F04DC0422DFF83C33CF
:104E10005A705DE089B2B1F5077F04DC0522DFF846
:104E20002C335A7054E089B240F27722914204DA6E
:104E30000622DFF818335A704AE089B2B1F5347FA0
:104E400004DC0722DFF804335A7041E089B240F2F3
:104E50002B32914204DA0822DFF8F0325A7037E040
:104E600089B2B1F5617F04DC0922DFF8E0325A70C3
:104E70002EE089B240F2DF32914203DA0A22B34BCC
:104E80005A7025E089B2B1F5876F03DC0B22AF4B76
:104E90005A701DE089B240F29342914203DA0C222B
:104EA000AA4B5A7014E089B240F2ED42914203DA03
:104EB0000D22A64B5A700BE089B240F24752914244
:104EC00003DA0E22A14B5A7002E00F229F4B5A7058
:104ED00089B21A2903DA00229C4B9A7069E089B2E0
:104EE000332903DA0122994B9A7062E089B24C2986
:104EF00003DA0222954B9A705BE089B2652903DAE6
:104F00000322924B9A7054E089B27E2903DA04227C
:104F10008E4B9A704DE089B2972903DA05228B4BAC
:104F20009A7046E089B2B02903DA0622874B9A705C
:104F30003FE089B2C92903DA0722844B9A7038E02E
:104F400089B2E22903DA0822804B9A7031E089B2F3
:104F5000FB2903DA09227D4B9A702AE089B2B1F568
:104F60008A7F03DA0A22794B9A7022E089B2B1F57E
:104F7000967F03DC0B22754B9A701AE089B2B1F56B
:104F8000A37F03DA0C22714B9A7012E089B2B1F55B
:104F9000AF7F03DC0D226D4B9A700AE089B2B1F548
:104FA000BC7F03DA0E22694B9A7002E00F22674B36
:104FB0009A7089B21A2903DA0022644BDA7069E028
:104FC00089B2332903DA0122604BDA7062E089B2D8
:104FD0004C2903DA02225D4BDA705BE089B2652965
:104FE00003DA0322594BDA7054E089B27E2903DADE
:104FF0000422564BDA704DE089B2972903DA052274
:10500000524BDA7046E089B2B02903DA06224F4BE0
:10501000DA703FE089B2C92903DA07224B4BDA7014
:1050200038E089B2E22903DA0822484BDA7031E02D
:1050300089B2FB2903DA0922444BDA702AE089B2EB
:10504000B1F58A7F03DA0A22404BDA7022E089B296
:10505000B1F5967F03DC0B223C4BDA701AE089B283
:10506000B1F5A37F03DA0C22384BDA7012E089B273
:10507000B1F5AF7F03DC0D22344BDA700AE089B260
:10508000B1F5BC7F03DA0E22304BDA7002E00F225A
:105090002E4BDA70704710B50400200040B2FFF7C5
:1050A0007DFE2B48007810F0FD0029490870284843
:1050B000007850F0100026490870B8202549087083
:1050C00025480078C006FBD423480078C0F381004F
:1050D000C0B20228F8D11D48C3781C4882781B480A
:1050E00041781A480078FFF755FE174864B210EB74
:1050F0008400807810F01F0018490870124864B2CC
:1051000010EB8400C07810F01F0050F040001449EC
:105110000870114800788006FBD50F4800784006DB
:10512000FBD50C48007810F03F000A4908700A4887
:105130000078C0F38100C0B20328F8D1024864B2FD
:1051400030F82400C0B210BD540BFF1F980BFF1F96
:10515000014006400040064006400640044006402C
:10516000054006400000000000000000002F000085
:1051700000000700070000147F147F1400242A7F1A
:105180002A12006264081323003649552250000099
:105190000503000000001C224100000041221C0009
:1051A0000014083E08140008083E0808000000A08B
:1051B0006000000808080808000060600000002087
:1051C00010080402003E5149453E0000427F400065
:1051D000004261514946002141454B3100181412EB
:1051E0007F10002745454539003C4A4949300001B8
:1051F0007109050300364949493600064949291E07
:105200000000363600000000563600000008142268
:105210004100001414141414000041221408000268
:105220000151090600324959513E007C1211127C8D
:10523000007F49494936003E41414122007F4141BA
:10524000221C007F49494941007F09090901003EAC
:105250004149497A007F0808087F0000417F4100EA
:10526000002040413F01007F08142241007F404060
:105270004040007F020C027F007F0408107F003E48
:105280004141413E007F09090906003E4151215E2E
:10529000007F091929460046494949310001017F2B
:1052A0000101003F4040403F001F2040201F003FC1
:1052B0004038403F00631408146300070870080773
:1052C00000615149454300007F41410000552A5586
:1052D0002A55000041417F00000402010204004001
:1052E0004040404000000102040000205454547823
:1052F000007F484444380038444444200038444443
:10530000487F00385454541800087E0901020018E0
:10531000A4A4A47C007F080404780000447D40001D
:10532000004080847D00007F102844000000417F01
:105330004000007C04180478007C080404780038DD
:105340004444443800FC242424180018242418FC65
:10535000007C0804040800485454542000043F44CE
:105360004020003C4040207C001C2040201C003C91
:105370004030403C004428102844001CA0A0A07CE1
:10538000004464544C44141414141414DFF800F052
:10539000B7300000DFF800F0432E0000F0204D4948
:1053A00008704C4800780006FBD54A480078712107
:1053B000084201D0002000E00120704780B5464837
:1053C000006850F40020444908604448006850F4E4
:1053D0000020424908603F4800780006FBD5F020D5
:1053E0003C4908700A20FFF7D1FF01BD10B582B01B
:1053F0000400A4B24FF4006000FB04F00090092008
:10540000374908709DF80200364908709DF8010080
:10541000354908709DF8000034490870FFF7BEFF59
:10542000002801D100200CE0A4B2002C08D17FF0AC
:10543000010240F20C41200080B200F003F800E0CD
:10544000012016BD7CB504000D001600A4B24FF477
:105450000060ADB200FB04500190ADB2042095FB9A
:10546000F0F101FB1051002903D0EA212048FFF799
:1054700091FFADB2B5F5006F03DDEC211C48FFF7DD
:1054800089FF9DF80600174908709DF80500164928
:1054900008709DF804001549087000969DF80300F7
:1054A000144908709DF80200134908709DF8010026
:1054B000124908709DF8000011490870062008493B
:1054C0000870FFF76BFF002801D1002000E00120E9
:1054D00076BD00000000024004F0014008F00140E9
:1054E000070002400600024005000240040002409E
:1054F000585800000B0002400A0002400900024018
:1055000008000240F0B4114E366834000F4E366881
:1055100056F47F060D4F3E600E0616F0706656EA92
:105520000076170517F470073E431F0417F4702721
:105530003E43074F3E6000263500EDB29D4201D24A
:105540006D1CFAE7014E3460F0BC704700F001407A
:105550004480044080B500F095F800F02AF800F08F
:105560000AF8FDF78BFC012201210420FDF73AFA2D
:1055700000F0B2F8FEE780B50D20FFF78CFD33494F
:105580000860324800684FF47A7148433049086037
:105590002F4800682F490968C1F30361491CB0FB1B
:1055A000F1F02D4908604FF416510320FDF79AFDE4
:1055B00001BD2DE9F8432948294988420DD0002032
:1055C0008046B8F5826F08D2254850F82800234954
:1055D00041F8280018F10108F3E7204800F08EF8A0
:1055E000204807002048060020480400A01B8046F1
:1055F0004046B0F10108002804D030783870761C9D
:105600007F1CF5E71A4881461A480500B5EB0900EA
:1056100080464046B0F10108002805D0002089F8F6
:10562000000019F10109F4E713481449144A531A08
:1056300098464346B3F10108002B04D00B78037061
:10564000491C401CF5E7BDE8F1830000A40EFF1FD4
:10565000A00EFF1F44800440A80EFF1F0000FF1F84
:10566000000000001004FF1FF419000004220000D5
:10567000E40DFF1F100FFF1F1C0CFF1F8C530000B9
:105680005455000080B500F008F80C4800884FF62B
:10569000FE7108400949088001BDEFF3118072B620
:1056A0004CF22051064A11804DF62811044A11800F
:1056B000C0B2002800D162B670470000002005404B
:1056C0000E200540012110F01F029140094A40B20E
:1056D000430942F82310704780B5FDF777FE06496D
:1056E000542000F01CF862B64420FFF7EBFFFEF7F1
:1056F0000BF8FCE700E100E06D5B000010B5040072
:105700004FF4007094FBF0F101FB1041002903D02D
:105710001E210B48FDF795FB0A48046010BD38B503
:1057200004000D00074800680749884203D0302173
:105730000348FDF786FB044864B240F8245031BDAD
:10574000EC5A000008ED00E00000FF1F433A5C55F2
:10575000736572735C54616E675C4465736B746FE0
:10576000705C6B36305CC9BDCDE24B3630B2CEBF1B
:10577000BCB4FAC2EB56352E33A3A8D6A7B3D6468F
:1057800058A1A2464EBACD444E5AA3A95CCAE9CD4F
:10579000E2B5C4B2CEBFBCC0FDB3CC5C4C43445FE9
:1057A000CFDFD0D44343445FCEDECFDFB4ABCAE417
:1057B0005CD0A1B3B5B3CCD0F25C436869705C73C4
:1057C00072635C4D4B36305F5379735469636B2E53
:1057D00063000000433A5C55736572735C54616EFC
:1057E000675C4465736B746F705C6B36305CC9BD0D
:1057F000CDE24B3630B2CEBFBCB4FAC2EB56352E3A
:1058000033A3A8D6A7B3D64658A1A2464EBACD44D4
:105810004E5AA3A95CCAE9CDE2B5C4B2CEBFBCC0A2
:10582000FDB3CC5C4C43445FCFDFD0D44343445FF3
:10583000CEDECFDFB4ABCAE45CD0A1B3B5B3CCD07D
:10584000F25C436869705C7372635C4D4B36305F29
:105850006164632E63000000433A5C5573657273A4
:105860005C54616E675C4465736B746F705C6B361F
:10587000305CC9BDCDE24B3630B2CEBFBCB4FAC24B
:10588000EB56352E33A3A8D6A7B3D64658A1A246C9
:105890004EBACD444E5AA3A95CCAE9CDE2B5C4B212
:1058A000CEBFBCC0FDB3CC5C4C43445FCFDFD0D493
:1058B0004343445FCEDECFDFB4ABCAE45CD0A1B3D8
:1058C000B5B3CCD0F25C436869705C7372635C4DB5
:1058D0004B36305F666C6173682E6300433A5C55EB
:1058E000736572735C54616E675C4465736B746F4F
:1058F000705C6B36305CC9BDCDE24B3630B2CEBF8A
:10590000BCB4FAC2EB56352E33A3A8D6A7B3D646FD
:1059100058A1A2464EBACD444E5AA3A95CCAE9CDBD
:10592000E2B5C4B2CEBFBCC0FDB3CC5C4C43445F57
:10593000CFDFD0D44343445FCEDECFDFB4ABCAE485
:105940005CD0A1B3B5B3CCD0F25C436869705C7332
:1059500072635C4D4B36305F66746D2E63000000E1
:10596000433A5C55736572735C54616E675C446561
:10597000736B746F705C6B36305CC9BDCDE24B36B7
:1059800030B2CEBFBCB4FAC2EB56352E33A3A8D684
:10599000A7B3D64658A1A2464EBACD444E5AA3A9A3
:1059A0005CCAE9CDE2B5C4B2CEBFBCC0FDB3CC5C2D
:1059B0004C43445FCFDFD0D44343445FCEDECFDFE0
:1059C000B4ABCAE45CD0A1B3B5B3CCD0F25C43684D
:1059D00069705C7372635C4D4B36305F6770696FE2
:1059E0002E630000433A5C55736572735C54616EBC
:1059F000675C4465736B746F705C6B36305CC9BDFB
:105A0000CDE24B3630B2CEBFBCB4FAC2EB56352E27
:105A100033A3A8D6A7B3D64658A1A2464EBACD44C2
:105A20004E5AA3A95CCAE9CDE2B5C4B2CEBFBCC090
:105A3000FDB3CC5C4C43445FCFDFD0D44343445FE1
:105A4000CEDECFDFB4ABCAE45CD0A1B3B5B3CCD06B
:105A5000F25C436869705C7372635C4D4B36305F17
:105A60005049542E63000000433A5C5573657273CD
:105A70005C54616E675C4465736B746F705C6B360D
:105A8000305CC9BDCDE24B3630B2CEBFBCB4FAC239
:105A9000EB56352E33A3A8D6A7B3D64658A1A246B7
:105AA0004EBACD444E5AA3A95CCAE9CDE2B5C4B200
:105AB000CEBFBCC0FDB3CC5C4C43445FCFDFD0D481
:105AC0004343445FCEDECFDFB4ABCAE45CD0A1B3C6
:105AD000B5B3CCD0F25C436869705C7372635C4DA3
:105AE0004B36305F756172742E630000433A5C552B
:105AF000736572735C54616E675C4465736B746F3D
:105B0000705C6B36305CC9BDCDE24B3630B2CEBF77
:105B1000BCB4FAC2EB56352E33A3A8D6A7B3D646EB
:105B200058A1A2464EBACD444E5AA3A95CCAE9CDAB
:105B3000E2B5C4B2CEBFBCC0FDB3CC5C4C43445F45
:105B4000CFDFD0D44343445FCEDECFDFB4ABCAE473
:105B50005CD0A1B3B5B3CCD0F25C436869705C7320
:105B600072635C6D6973632E6300000010B51648A4
:105B7000006850F001001449086014480078401C87
:105B80001249087012480078D0F10A000400E4B20B
:105B9000022C06DB0D480078E4B2844201D1FEF706
:105BA000A9FE0A4800780A280DD10020074908708C
:105BB0000848FEF7DDFEFFF7A7F8FEF71CFFFEF72B
:105BC00082FFFEF75DFE10BD0C7103400F0FFF1F3B
:105BD0001304FF1FE40DFF1F0A2A2A2A2A646566A0
:105BE00061756C745F69737220656E74657265644B
:105BF000206F6E20766563746F722025642A2A2ACE
:105C00002A2A0A0A257320496E74657272757074A7
:105C10000000000010B5074979441831064C7C4457
:105C2000163404E00A68081D511888470146A1424D
:105C3000F8D110BD2C0000003800000041737365DE
:105C40007274696F6E206661696C656420696E208C
:105C50002573206174206C696E652025640A00003C
:105C6000A7B3FFFF2C010000E40DFF1F00000000A0
:105C70000ABDF8D0D0BDE2CBF8B2D9D7F7A3ACC7F4
:105C8000EBD6D8D0C2CBA2C8EBB9CCBCFE0000008A
:105C900000F00BF8002801D0FFF7BCFF0020C04641
:105CA000C046FFF719FD00F002F80120704700F030
:105CB00001B800000746384600F002F8FBE7000094
:105CC0002021090326311820ABBEF9E738B5044678
:105CD0000D46284600F006F8A84218BF00242046CA
:105CE00032BD00000149FDF7BFB800BFDC0BFF1F4C
:105CF0000ABDF8C8EBCBC0D1ADBBB7B5C8B4FDA3E6
:105D0000A10000005468726573686F6C643A00000B
:105D1000C046C046C046C046FFF7BAFF537465652B
:105D2000723A000053706565643A00004572723A39
:105D3000000000004C6576656C3A00000000000031
:105D40000000000000000000000000000000000053
:105D50000000000000000000FFFFFFFFFFFFFFFF4B
:105D60000000000000000000000000000000000033
:105D70000000000000000000000000000000000023
:105D800000000000FFFFFFFFFFFF00000000000019
:105D90000000000000000000000000000000000003
:105DA00000000000000000000000000000000000F3
:105DB00000000000000000000000000000000000E3
:045DC00000000000DF
:0400000500005D1189
:00000001FF
